S018000054656D705F636F6E74726F6C5F6D63752E7372656372
S11300000C9437000C94C2040C9454000C945400C7
S11300100C9454000C9454000C9454000C9454000C
S11300200C9454000C9454000C9454000C945400FC
S11300300C9454000C9454000C9454000C945400EC
S11300400C9454000C9454000C9454000C946B04C1
S11300500C94540074656D702E20636F6E74726F0F
S11300606C0057656C636F6D6520746F000011241C
S11300701FBECFE5D4E0DEBFCDBF11E0A0E6B0E007
S1130080E2EEF2E102C005900D92A636B107D9F76F
S113009021E0A6E6B1E001C01D92A03BB207E1F762
S11300A00E9477050C946F090C940000979A00C085
S11300B097980895CF93C82F662311F0959A01C09D
S11300C095989698BC9ABD9ABE9ABF9AC798C698B6
S11300D0C598C498CC230CF4C79AC6FDC69AC5FD2E
S11300E0C59AC4FDC49A0E945600C798C698C5987C
S11300F0C498C3FDC79AC2FDC69AC1FDC59AC0FD86
S1130100C49A0E945600C49AC59AC69AC79ACF91B7
S11301100895882311F0959A01C09598969ABC98F1
S1130120BD98BE98BF98979A00C0B49B02C080E166
S113013001C080E0B5998062B6998064B7998068FF
S1130140979800C0979A00C0B4998160B59982606D
S1130150B6998460B79988609798089580E00E9462
S113016089008823DCF383E090E00197F1F780E0D5
S11301700E9489000895CF93C82F0E94AE0060E0CA
S11301808C2F0E945A00CF910895611104C08058A9
S11301900E94BB00089580540E94BB00089581E032
S11301A00E94BB000895CF93C82F0E94AE00CA30AE
S11301B049F4803410F080E001C080E480580E944B
S11301C0BB0004C061E08C2F0E945A00CF910895B7
S11301D0CF93DF93EC012196FC018081882329F0E1
S11301E00E94D30089918111FBCFDF91CF910895B3
S11301F0CF93DF93EC012196FC018491882339F09D
S11302000E94D300FE01849121968111F9CFDF91E0
S1130210CF9108951F93CF93DF93182F8D9A8E9AC1
S11302208F9ABC9ABD9ABE9ABF9A80E393E70197CE
S1130230F1F7C59AC49A0E94560080EF93E20197A1
S1130240F1F70E945600C5E7D0E0CE010197F1F71F
S11302500E945600CE010197F1F7C4980E945600FF
S11302602197F1F788E20E94BB0088E00E94BB005E
S11302700E94CF0086E00E94BB00812F0E94BB0039
S1130280DF91CF911F910895CF93DF93CDB7DEB760
S113029060970FB6F894DEBF0FBECDBF0E94CF00AB
S11302A0809183014AE0BE016F5F7F4F90E00E941E
S11302B03A0980E690E00E94E800CE0101960E948F
S11302C0E8008EE20E94D30080918F01882321F000
S11302D085E30E94D30003C080E30E94D3008FED26
S11302E00E94D30087E690E00E94E80061E080E08D
S11302F00E94C5008BE690E00E94E800E09167014F
S1130300F0E0EE0FFF1FE456FE4F808191810E94C2
S1130310E80061E08BE00E94C500809170018823B1
S113032019F08CE40E94D30061E08DE00E94C500C6
S113033080916F01882319F081E40E94D3006096B4
S11303400FB6F894DEBF0FBECDBFDF91CF910895F5
S11303500E94CF0060E083E00E94C50082E690E046
S11303600E94F80061E081E00E94C50084E590E00D
S11303700E94F8000895CF93DF9300D000D0CDB74A
S1130380DEB70E94CF008CE30E94D3008091660107
S1130390811123C0E0916A01F0E0EE0FFF1FEB57DB
S11303A0FE4F0190F081E02DDF010D900020E9F770
S11303B0CF018A1B9B0B41969695879560E00E941E
S11303C0C500E0916A01F0E0EE0FFF1FEB57FE4F0E
S11303D0808191810E94E80069C180916A01811144
S11303E090C0E0916901F0E0EE0FFF1FEC55FE4F65
S11303F00190F081E02DDF010D900020E9F7CF019D
S11304008A1B9B0B41969695879560E00E94C500D8
S1130410E0916901F0E0EE0FFF1FEC55FE4F808183
S113042091810E94E80080916801811132C061E0ED
S113043086E00E94C500E0916901E330A0F4F0E099
S1130440EF58FE4F80814AE0BE016F5F7F4F90E01E
S11304500E943A090E94E8008FED0E94D30083E4D1
S11304600E94D30023C180E20E94D300E09169017D
S1130470F0E0EF58FE4F80814AE0BE016F5F7F4F8E
S113048090E00E943A090E94E80080E20E94D300B2
S11304900DC161E085E00E94C5008CE30E94D30099
S11304A0E0916901E330A0F4F0E0EF58FE4F808161
S11304B04AE0BE016F5F7F4F90E00E943A090E94BC
S11304C0E8008FED0E94D30083E40E94D30015C09E
S11304D080E20E94D300E0916901F0E0EF58FE4F02
S11304E080814AE0BE016F5F7F4F90E00E943A092D
S11304F00E94E80080E20E94D3008EE30E94D300B1
S1130500D5C0813089F560E085E00E94C50082E7AE
S113051090E00E94E800E0916901F0E0EE0FFF1F17
S1130520E456FE4F0190F081E02DDF010D90002094
S1130530E9F7CF018A1B9B0B0F969695879561E08F
S11305400E94C5008CE30E94D300E0916901F0E0B1
S1130550EE0FFF1FE456FE4F808191810E94E80058
S11305608EE30E94D300A2C0E0916901F0E0EE0F97
S1130570FF1FE057FE4F0190F081E02DDF010D9049
S11305800020E9F7CF018A1B9B0B4196969587952E
S113059060E00E94C500E0916901F0E0EE0FFF1FEA
S11305A0E057FE4F808191810E94E80080916801AC
S11305B081113CC061E086E00E94C500E0916901C0
S11305C08FEF8E0F8230A0F4F0E0E459FE4F80816B
S11305D04AE0BE016F5F7F4F90E00E943A090E949B
S11305E0E8008FED0E94D30083E40E94D3005EC034
S11305F080E20E94D300E0916901F0E0E459FE4FEB
S113060080814AE0BE016F5F7F4F90E00E943A090B
S11306100E94E80080E20E94D30080916901833047
S113062009F044C080E20E94D30040C061E085E04C
S11306300E94C5008CE30E94D300E09169018FEF12
S11306408E0F8230A0F4F0E0E459FE4F80814AE03E
S1130650BE016F5F7F4F90E00E943A090E94E8005C
S11306608FED0E94D30083E40E94D3001CC080E27B
S11306700E94D300E0916901F0E0E459FE4F8081CB
S11306804AE0BE016F5F7F4F90E00E943A090E94EA
S1130690E80080E20E94D30080916901833019F45C
S11306A080E20E94D3008EE30E94D30060E08FE0DA
S11306B00E94C5008EE30E94D3000F900F900F900C
S11306C00F90DF91CF910895FC0180E380838183B3
S11306D08283838308950F931F93CF93DF93809135
S11306E08201811136C00E94CF0060E081E00E9447
S11306F0C50088E790E00E94E80061E084E00E9481
S1130700C5000BE711E0C0E0809169018C1317C0AC
S113071080916801811102C080E201C08CE30E94D3
S1130720D300F80180810E94D30080916801811177
S113073002C080E201C08EE30E94D30004C0F8012D
S113074080810E94D300CF5F0F5F1F4FC430E1F65A
S113075037C080918101882309F10E94CF0060E0B5
S113076082E00E94C50086E890E00E94E80061E013
S113077084E00E94C50083E990E00E94E800CBE792
S1130780D1E00FE711E089910E94D300C017D1078F
S1130790D1F786E990E00E94E80012C00E94CF00E1
S11307A060E082E00E94C50089E990E00E94E800D0
S11307B061E086E00E94C50086EA90E00E94E800BD
S11307C0DF91CF911F910F9108950F931F93CF93B2
S11307D080917F01811132C00E94CF008BEA90E0AA
S11307E00E94E80061E084E00E94C50007E711E090
S11307F0C0E0809169018C1317C080916801811158
S113080002C080E201C08CE30E94D300F801808121
S11308100E94D30080916801811102C080E201C06E
S11308208EE30E94D30004C0F80180810E94D300AB
S1130830CF5F0F5F1F4FC430E1F612C00E94CF009C
S113084060E083E00E94C5008BEB90E00E94E8002A
S113085061E084E00E94C50085EC90E00E94E8001D
S1130860CF911F910F910895FC01308120917B015C
S113087032130DC03196ACE7B1E0049631912D915D
S1130880321307C0E817F907C9F781E0089580E03B
S1130890089580E008950E94CF0080916B0182301A
S11308A089F028F4882341F0813049F00895833099
S11308B061F0843069F008950E94A80108950E94AF
S11308C0440108950E94BB0108950E946B0308959A
S11308D00E94E50308951F920F920FB60F92112400
S11308E02F933F934F935F936F937F938F939F9334
S11308F0AF93BF93EF93FF930E944B0480918D01BC
S11309008130D9F480E090E090919A01A0E0B0E0C9
S1130910072E79E0B695A795979587957A95D1F79F
S1130920702D282F217020938F01B695A795979548
S113093087958093830110928D01FF91EF91BF9170
S1130940AF919F918F917F916F915F914F913F9163
S11309502F910F900FBE0F901F9018958BB78F7B20
S11309608BBF78942FEF8FE39BE021508040904021
S1130970E1F700C0000080E48ABF8BB780648BBFBE
S1130980F89408951F920F920FB60F9211242F938B
S11309903F934F935F936F937F938F939F93AF9303
S11309A0BF93EF93FF9380916B018230C9F028F4D9
S11309B0882341F0813051F030C0833009F1843014
S11309C039F12BC083E080936B0127C080918001B3
S11309D0882311F082E001C084E080936B011DC084
S11309E081E080936B0190918101911180E080936B
S11309F0800110926A0110926801109266010DC084
S1130A0080918201882349F081E080936B0105C0C5
S1130A1010927F0181E080936B010E944B040E943D
S1130A20AE04FF91EF91BF91AF919F918F917F9110
S1130A306F915F914F913F912F910F900FBE0F9047
S1130A401F901895FC011082118212821382148265
S1130A50161664F43596660F770B6B5F7F4F860F1F
S1130A60971F11921192E817F907D9F70895CF93B8
S1130A70DF939C01FB01408181819281A381B48138
S1130A80820F931FA11DB11DC42FCC0FDD0BC60F08
S1130A90D71F6D817E81861B970BA109B1098183C4
S1130AA09283A383B4833E832D834F5F403211F03E
S1130AB0408301C01082689414F8B695A795979561
S1130AC087951694D1F7DF91CF91089597B1987FC8
S1130AD097B997B1892B87B9369A3699FECF84B1E5
S1130AE095B1089586E886B980EC87B90895CF93C7
S1130AF0DF93CDB7DEB7C554D1090FB6F894DEBF86
S1130B000FBECDBFE5E8F1E08EEC90E091838083E9
S1130B1088ED90E0938382838EED90E095838483C7
S1130B20E4EAF1E084EE90E0918380838DEE90E03E
S1130B309383828386EF90E0958384838FEF90E0A4
S1130B409783868389E091E09187808781E191E0B2
S1130B5093878287E0E9F1E08AE191E091838083E1
S1130B6085E291E09383828380E391E0958384839B
S1130B708AE391E09783868386E491E09187808776
S1130B80ECE9F1E081E591E09183808386E591E0F1
S1130B90938382838BE591E09583848387E791E057
S1130BA00E9464038BE791E00E946403E1E7F1E0B3
S1130BB083E680831182128282E08383148291E02F
S1130BC09583ECE6F1E0808392E3918312821382B1
S1130BD0148296E09ABB1BBA97E098BB17BA90E1CF
S1130BE091BB91E29FBD9AE09EBD20E830E039BD03
S1130BF028BD9DE093BF98E49CBF89BF85BF80E476
S1130C008BBF78948CE00E940A010E94CF000E945E
S1130C104B0460E2CE0101960E9422050E947205F7
S1130C207894812C912C54017724739401E711E07A
S1130C306894552451F80F2EFCE6CF2EF1E0DF2EF8
S1130C40F02D0F2EF6E06F2EF02D412C0F2EF3E039
S1130C50EF2EF12CF02D0F2EF5E03F2EF02D212C50
S1130C6080E00E946605BE016F5F7F4F0E943705DA
S1130C7090939B0180939A014A815B816C817D8171
S1130C809401241B350BC901992324F4882799273F
S1130C90821B930B41970CF44AC070928D01D801CA
S1130CA01296FC91E09183018F2F90E08E1B9109A5
S1130CB09C0122F422273327281B390BD8011396D1
S1130CC08C9190E08217930750F5809167018130F1
S1130CD081F018F08230C9F028C0FE1730F48BB3CD
S1130CE081708BBB4A015B0122C0D99A4A015B0126
S1130CF01EC0EF1730F48BB381708BBB4A015B01CC
S1130D0016C0DA9A4A015B0112C0EF1720F4D99A8F
S1130D104A015B010CC0DA9A4A015B0108C08BB33B
S1130D2081708BBB4A015B0102C04A015B01B0992F
S1130D300EC180916B01833009F4D1C0843009F471
S1130D40EAC0823009F055C28091660181110AC05F
S1130D5080916A0190E00196B7010E941209809384
S1130D606A0147C28091680181110FC080916901B5
S1130D7090E0019620916A01222309F44CC22130AB
S1130D8009F441C2632D722D48C280916A01811118
S1130D9062C080916901282F30E0F901EF58FE4FBD
S1130DA090819F5F9083823091F128F4882351F0E1
S1130DB08130E9F01EC28430F1F1A8F1853009F4E4
S1130DC042C017C2943640F0F901EF58FE4FD801E3
S1130DD011968C918F5F8083F901EF58FE4F8081CB
S1130DE0F8019281891708F004C2828302C2D801F3
S1130DF08C91981728F0F901EF58FE4F1082F9C131
S1130E00F8018281891708F0F4C19283F2C1D801F4
S1130E108C91891708F0EDC111968C91F901EF5866
S1130E20FE4F8083E6C19F3108F4E3C1F901EF5816
S1130E30FE4F1082DEC19B3F08F4DBC1F901EF587D
S1130E40FE4F1082D6C19B3F08F4D3C1F901EF587D
S1130E50FE4F1082CEC1823009F0CBC1909169015E
S1130E60292F30E0F901E459FE4F80818F5F8083A0
S1130E709230F9F028F4992341F0913071F0B9C11E
S1130E80933009F1943029F1B4C1833308F4B1C12A
S1130E90F901E459FE4F7082ACC1843608F4A9C14B
S1130EA0F901E459FE4FD60112968C918F5F80832D
S1130EB0A0C1F6019181891708F49BC1F901E45995
S1130EC0FE4F108296C1F901E459FE4F8170808370
S1130ED090C1F901E459FE4F817080838AC18091E9
S1130EE0680181110FC08091690190E001968370BF
S1130EF09078992324F401978C6F9F6F01968093C7
S1130F00690177C1E0916901F0E0E558FE4F808105
S1130F108F5F80836EC18091680181110FC08091C1
S1130F20690190E0019683709078992324F40197E5
S1130F308C6F9F6F0196809369015BC1E091690199
S1130F40F0E0E958FE4F80818F5F808352C1B199F0
S1130F50F9C080916B01833009F4D4C0843009F462
S1130F60E1C0823009F045C18091660181110BC056
S1130F707092660190916A01913011F48091670139
S1130F808093690136C180916801811103C0709218
S1130F9068012FC180916A0181116FC0E0916901DC
S1130FA0E230C9F128F4EE2359F0E130F1F05EC0EB
S1130FB0E43009F448C0E8F1E53009F44EC056C005
S1130FC0D8019C9111968C911197891710F0F4E631
S1130FD0FC93D8018C9112969C911297891708F072
S1130FE045C0815012968C9341C0D80111968C91C2
S1130FF01197811103C08C9111968C93D80111968D
S11310008C91119712969C911297891778F58150BB
S113101012968C932BC0D80112969C91129711961C
S11310208C911197891710F18C918F5F12968C9384
S11310301DC0D80113968C911397811117C0FFE13D
S11310401396FC9313C0D80114968C9114978111B4
S11310500DC0FBEF1496FC9309C0D80115968C9132
S11310601597811103C0FBEF1596FC93F0E0EF5840
S1131070FE4F808181508083BCC0823009F0B9C0AA
S1131080E0916901E230E1F028F4EE2341F0E1302F
S113109069F031C0E330F1F0E43029F12CC0D6011D
S11310A08C91823040F5F3E3FC9325C0D601119670
S11310B08C91119781111FC0F4E61196FC931BC00B
S11310C0D60112968C911297811115C0F4E61296EE
S11310D0FC9311C0D60113968C91139781708F5F86
S11310E013968C9308C0D60114968C911497817032
S11310F08F5F14968C93F0E0E459FE4F8081815009
S1131100808377C080916801811103C07092680167
S113111070C0E0916901F0E0E558FE4F8081815094
S1131120808367C080916801811103C07092680157
S113113060C0E0916901F0E0E958FE4F8081815080
S1131140808357C0B29955C080916B018330A1F060
S1131150843069F1823009F04CC0809168018823A1
S113116019F01092680145C080916601882309F442
S113117040C0109266013DC080916801811114C085
S11311807092820180E691E00E943404972D8111CF
S113119090E090938101972D811101C090E090938C
S11311A080011092690125C01092680122C08091CB
S11311B06801882319F0109268011BC087E791E049
S11311C00E943404882359F07092800150926B017C
S11311D07092690187E791E00E9464030AC07092EB
S11311E07F01109280011092690187E791E00E94CB
S11311F06403BFEFEFE7F4E0B150E040F040E1F703
S113120000C000002DCDB7010E941209809369012E
S113121080936701EECF662D742D0E94120980938E
S11312206901E7CF97FB072E16F4009407D077FDEA
S113123009D00E94260907FC05D03EF490958195BB
S11312409F4F0895709561957F4F0895AA1BBB1B0E
S113125051E107C0AA1FBB1FA617B70710F0A61BB2
S1131260B70B881F991F5A95A9F780959095BC01D3
S1131270CD010895BB274A3031F4992322F4BDE20D
S1131280909581959F4F0C944609BB27FB015527E8
S1131290AA27880F991FAA1FA41710F0A41B8395CF
S11312A05051B9F7A05DAA3308F0A95DA193009746
S11312B079F7B111B1931192CB010C945F09DC0160
S11312C0FC01672F71917723E1F7329704C07C9179
S11312D06D9370836291AE17BF07C8F30895F894B5
S10512E0FFCF3A
S11312E254656D703A2000432020004D6F64653AC6
S11312F220004D6F64653A00536574207061737306
S1131302776F72643A0050617373776F72642073FB
S11313126574003D3E003C3D0050617373776F720B
S113132264206E6F74007573656400456E74657233
S11313322070617373776F72643A00496E636F72DF
S1131342726563740070617373776F7264005661BF
S1131352726961626C6573004D6F64657300416C00
S113136261726D006D61782074656D70006D696ED7
S11313722074656D70007365742074656D700074FB
S1131382656D702064696666006F6E2074696D65B0
S1131392006F66662074696D6500616C61726D2010
S11313A26469666600616C61726D206869676800D1
S11313B2616C61726D206C6F7700616C61726D207B
S11313C27573616765006C6F636B20757361676524
S11313D2006865617400636F6F6C0062616C200069
S10913E230303030000041
S9030000FC
