S018000054656D705F636F6E74726F6C5F6D63752E7372656372
S11300000C9437000C943C050C9454000C9454004C
S11300100C9454000C9454000C9454000C9454000C
S11300200C9454000C9454000C9454000C945400FC
S11300300C9454000C9454000C9454000C945400EC
S11300400C9454000C9454000C9454000C94E50447
S11300500C94540074656D702E20636F6E74726F0F
S11300606C0057656C636F6D6520746F000011241C
S11300701FBECFE5D4E0DEBFCDBF11E0A0E6B0E007
S1130080E2E0F0E102C005900D92A431B107D9F786
S113009021E0A4E1B1E001C01D92A234B207E1F76E
S11300A00E94EB050C94FF070C940000979A00C083
S11300B097980895CF93C82F662311F0959A01C09D
S11300C095989698BC9ABD9ABE9ABF9AC798C698B6
S11300D0C598C498CC230CF4C79AC6FDC69AC5FD2E
S11300E0C59AC4FDC49A0E945600C798C698C5987C
S11300F0C498C3FDC79AC2FDC69AC1FDC59AC0FD86
S1130100C49A0E945600C49AC59AC69AC79ACF91B7
S11301100895882311F0959A01C09598969ABC98F1
S1130120BD98BE98BF98979A00C0B49B02C080E166
S113013001C080E0B5998062B6998064B7998068FF
S1130140979800C0979A00C0B4998160B59982606D
S1130150B6998460B79988609798089580E00E9462
S113016089008823DCF383E090E00197F1F780E0D5
S11301700E9489000895CF93C82F0E94AE0060E0CA
S11301808C2F0E945A00CF910895611104C08058A9
S11301900E94BB00089580540E94BB00089581E032
S11301A00E94BB000895CF93C82F0E94AE00CA30AE
S11301B049F4803410F080E001C080E480580E944B
S11301C0BB0004C061E08C2F0E945A00CF910895B7
S11301D0CF93DF93EC012196FC018081882329F0E1
S11301E00E94D30089918111FBCFDF91CF910895B3
S11301F0CF93DF93EC012196FC018491882339F09D
S11302000E94D300FE01849121968111F9CFDF91E0
S1130210CF9108951F93CF93DF93182F8D9A8E9AC1
S11302208F9ABC9ABD9ABE9ABF9A80E393E70197CE
S1130230F1F7C59AC49A0E94560080EF93E20197A1
S1130240F1F70E945600C5E7D0E0CE010197F1F71F
S11302500E945600CE010197F1F7C4980E945600FF
S11302602197F1F788E20E94BB0088E00E94BB005E
S11302700E94CF0086E00E94BB00812F0E94BB0039
S1130280DF91CF911F910895CF93DF93CDB7DEB760
S113029060970FB6F894DEBF0FBECDBF0E94CF00AB
S11302A0809127014AE0BE016F5F7F4F90E00E947A
S11302B0CA0780E690E00E94E800CE0101960E9401
S11302C0E8008EE20E94D30080913301882321F05C
S11302D085E30E94D30003C080E30E94D3008FED26
S11302E00E94D30087E690E00E94E80061E080E08D
S11302F00E94C5008BE690E00E94E800E0911501A1
S1130300F0E0EE0FFF1FEA5CFE4F808191810E94B6
S1130310E80060960FB6F894DEBF0FBECDBFDF9144
S1130320CF9108950E94CF0060E083E00E94C50051
S113033082E690E00E94F80061E081E00E94C5003E
S113034084E590E00E94F80008950F931F93CF93E3
S1130350DF9300D01F92CDB7DEB70E94CF008CE3AD
S11303600E94D3008091140181117FC080911801F3
S1130370813021F130F08230F1F1833009F458C03A
S113038025C2E0912901F0912A01DF010D9000209E
S1130390E9F7CF018A1B9B0B41969695879560E000
S11303A00E94C500E0911801F0E0EE0FFF1FE75D29
S11303B0FE4F808191810E94E80008C2E0912B01E8
S11303C0F0912C01DF010D900020E9F7CF018A1B89
S11303D09B0B41969695879560E00E94C500E0913D
S11303E01801F0E0EE0FFF1FE75DFE4F8081918161
S11303F00E94E800EBC1E0912D01F0912E01DF0194
S11304000D900020E9F7CF018A1B9B0B419696952E
S1130410879560E00E94C500E0911801F0E0EE0FBE
S1130420FF1FE75DFE4F808191810E94E800CEC1ED
S1130430E0912F01F0913001DF010D900020E9F7E8
S1130440CF018A1B9B0B41969695879560E00E948D
S1130450C500E0911801F0E0EE0FFF1FE75DFE4FCD
S1130460808191810E94E800B1C1809118018111BD
S1130470F6C080911701813021F0823009F478C0F0
S1130480A5C1E0913E01F0913F01DF010D900020F4
S1130490E9F7CF018A1B9B0B41969695879560E0FF
S11304A00E94C500E0911701F0E0EE0FFF1FE45C2D
S11304B0FE4F808191810E94E80090911B018DEC98
S11304C0989F812D112486958695869520E3280F83
S11304D02983880F282F220F220F820F981B905DEB
S11304E09A831B828091160181111EC08E010F5FB9
S11304F01F4FF80101900020E9F7C8018E1B9F0BE4
S11305000E969695879561E00E94C500C8010E94E9
S1130510E80082E790E00E94E8008FED0E94D3009B
S113052083E40E94D30052C18E010F5F1F4FF80174
S113053001900020E9F7C8018E1B9F0B0C9696953D
S1130540879561E00E94C5008CE30E94D300C80136
S11305500E94E80082E790E00E94E8008FED0E948C
S1130560D30083E40E94D3008EE30E94D3002EC103
S1130570E0914001F0914101DF010D900020E9F785
S1130580CF018A1B9B0B41969695879560E00E944C
S1130590C500E0911701F0E0EE0FFF1FE45CFE4F91
S11305A0808191810E94E80090911B018DEC989FBD
S11305B0812D112486958695869520E3280F29831D
S11305C0880F282F220F220F820F981B905D9A8389
S11305D01B828091160181111EC08E010F5F1F4F77
S11305E0F80101900020E9F7C8018E1B9F0B0E96BD
S11305F09695879561E00E94C500C8010E94E800B5
S113060082E790E00E94E8008FED0E94D30083E42B
S11306100E94D300DBC08E010F5F1F4FF8010190D1
S11306200020E9F7C8018E1B9F0B0C9696958795C1
S113063061E00E94C5008CE30E94D300C8010E94BF
S1130640E80082E790E00E94E8008FED0E94D3006A
S113065083E40E94D3008EE30E94D300B7C060E01D
S113066085E00E94C50085E790E00E94E800809143
S11306701501813089F138F0823009F456C0833095
S113068009F47CC0A3C0E0911701F0E0EE0FFF1F56
S1130690EC5CFE4F0190F081E02DDF010D90002015
S11306A0E9F7CF018A1B9B0B0F969695879561E01E
S11306B00E94C5008CE30E94D300E0911701F0E092
S11306C0EE0FFF1FEC5CFE4F808191810E94E800D9
S11306D08EE30E94D3007AC0E0911701F0E0EE0FA0
S11306E0FF1FEC5CFE4F0190F081E02DDF010D90C7
S11306F00020E9F7CF018A1B9B0B0F9696958795EF
S113070061E00E94C5008CE30E94D300E0911701D0
S1130710F0E0EE0FFF1FEC5CFE4F808191810E94A0
S1130720E8008EE30E94D30051C0E0911701F0E08D
S1130730EE0FFF1FEC5CFE4F0190F081E02DDF0116
S11307400D900020E9F7CF018A1B9B0B0F9696951D
S1130750879561E00E94C5008CE30E94D300E0917C
S11307601701F0E0EE0FFF1FEC5CFE4F80819181DA
S11307700E94E8008EE30E94D30028C0E091170194
S1130780F0E0EE0FFF1FEC5CFE4F0190F081E02DD6
S1130790DF010D900020E9F7CF018A1B9B0B0F9618
S11307A09695879561E00E94C5008CE30E94D30072
S11307B0E0911701F0E0EE0FFF1FEC5CFE4F80812B
S11307C091810E94E8008EE30E94D30060E08FE0F4
S11307D00E94C5008EE30E94D3000F900F900F90EB
S11307E0DF91CF911F910F910895FC0180E38083E5
S11307F081838283838308950F931F93CF93DF9321
S113080080912601811136C00E94CF0060E081E012
S11308100E94C5008BE790E00E94E80061E084E05C
S11308200E94C50000E211E0C0E0809117018C1322
S113083017C080911601811102C080E201C08CE3CF
S11308400E94D300F80180810E94D3008091160198
S1130850811102C080E201C08EE30E94D30004C073
S1130860F80180810E94D300CF5F0F5F1F4FC43017
S1130870E1F620C00E94CF0060E082E00E94C50043
S113088089E890E00E94E80061E084E00E94C500ED
S113089086E990E00E94E800C0E2D1E004E211E0C1
S11308A089910E94D300C017D107D1F789E990E05C
S11308B00E94E800DF91CF911F910F9108950F934B
S11308C01F93CF9380912401811132C00E94CF00E5
S11308D08CE990E00E94E80061E084E00E94C50099
S11308E00CE111E0C0E0809117018C1317C08091D6
S11308F01601811102C080E201C08CE30E94D30082
S1130900F80180810E94D30080911601811102C0F8
S113091080E201C08EE30E94D30004C0F80180810C
S11309200E94D300CF5F0F5F1F4FC430E1F612C0A7
S11309300E94CF0060E083E00E94C5008CEA90E052
S11309400E94E80061E084E00E94C50086EB90E02C
S11309500E94E800CF911F910F910895FC0130810E
S11309602091200132130DC03196A1E2B1E004962A
S113097031912D91321307C0E817F907C9F781E0C7
S1130980089580E0089580E008950E94CF0080914A
S11309901901823089F028F4882341F0813049F02C
S11309A00895833061F0843069F008950E949201C3
S11309B008950E94440108950E94A50108950E948B
S11309C0FC0308950E945F0408951F920F920FB6CE
S11309D00F9211242F933F934F935F936F937F93C1
S11309E08F939F93AF93BF93EF93FF930E94C5049C
S11309F0809131018130D9F480E090E0909134010C
S1130A00A0E0B0E0072E79E0B695A7959795879575
S1130A107A95D1F7702D282F217020933301B69544
S1130A20A795979587958093270110923101FF919F
S1130A30EF91BF91AF919F918F917F916F915F9152
S1130A404F913F912F910F900FBE0F901F901895CB
S1130A508BB78F7B8BBF78942FEF8FE39BE0215074
S1130A6080409040E1F700C0000080E48ABF8BB76B
S1130A7080648BBFF89408951F920F920FB60F9263
S1130A8011242F933F934F935F936F937F938F938F
S1130A909F93AF93BF93EF93FF938091190182309B
S1130AA0E9F028F4882341F0813051F02AC08330E2
S1130AB0D9F0843009F125C083E08093190121C065
S1130AC080912501882311F082E001C084E08093A5
S1130AD01901109217011092160113C081E080933E
S1130AE01901109225010DC080912601882349F037
S1130AF081E08093190105C01092240181E0809364
S1130B0019010E94C5040E942805FF91EF91BF912D
S1130B10AF919F918F917F916F915F914F913F9191
S1130B202F910F900FBE0F901F901895FC0110820B
S1130B301182128213821482161664F43596660F9B
S1130B40770B6B5F7F4F860F971F11921192E817F7
S1130B50F907D9F70895CF93DF939C01FB014081F6
S1130B6081819281A381B481820F931FA11DB11D44
S1130B70C42FCC0FDD0BC60FD71F6D817E81861B62
S1130B80970BA109B10981839283A383B4833E8324
S1130B902D834F5F403211F0408301C0108268946E
S1130BA014F8B695A795979587951694D1F7DF9184
S1130BB0CF91089597B1987F97B997B1892B87B949
S1130BC0369A3699FECF84B195B1089586E886B9F0
S1130BD080EC87B90895CF93DF93CDB7DEB7C554C2
S1130BE0D1090FB6F894DEBF0FBECDBFE9E2F1E044
S1130BF08FEB90E09183808389EC90E093838283F0
S1130C008FEC90E09583848389ED90E097838683CD
S1130C10EEE3F1E084EE90E0918380838DEE90E04A
S1130C2093838283E6E3F1E086EF90E0918380830F
S1130C308EEF90E09383828386E091E095838483B2
S1130C408EE091E0978386838CE191E00E94F50326
S1130C5080E291E00E94F50383E280931A0180937D
S1130C601B0180EE8ABB87E088BB17BA80E181BB99
S1130C7081E28FBD8AE08EBD80E890E099BD88BD99
S1130C808DE083BF88E48CBF82E089BF85BF80E4A8
S1130C908BBF78948CE00E940A010E94CF000E94CE
S1130CA0C50460E2CE0101960E9496050E94E60505
S1130CB07894C12CD12C760111E002E00F2EF4E6D9
S1130CC0BF2EF02D80E00E94DA05BE016F5F7F4FDA
S1130CD00E94AB0590933501809334014A815B8176
S1130CE06C817D819601241B350BC901992324F461
S1130CF088279927821B930B419724F01093310185
S1130D006A017B01B0998FC080911901833009F485
S1130D1052C0843009F46BC0823009F02BC1809139
S1130D20140181110FC08091180190E00196837025
S1130D309078992324F401978C6F9F6F0196809388
S1130D40180118C180911601811114C080911701F6
S1130D5090E020911801222309F416C18370907841
S1130D6031E0380F30931701213009F003C180932B
S1130D70150100C1809118018111FCC080911701F7
S1130D80813019F0823061F0F5C080911B018F5FD2
S1130D90843618F480931B01EDC010921B01EAC045
S1130DA080911A018F5F843618F480931A01E2C08F
S1130DB010921A01DFC08091160181110FC0809139
S1130DC0170190E0019683709078992324F4019799
S1130DD08C6F9F6F019680931701CCC0E09117012F
S1130DE0F0E0E05EFE4F80818F5F8083C3C080911E
S1130DF0160181110FC08091170190E00196837054
S1130E009078992324F401978C6F9F6F01968093B7
S1130E101701B0C0E0911701F0E0E45EFE4F80815D
S1130E208F5F8083A7C0B1995DC080911901833021
S1130E30C9F1843009F446C0823009F09BC0809126
S1130E401401811103C01093140194C08091160100
S1130E50811105C080911701809316018BC0809188
S1130E601801811187C080911701813019F08230F7
S1130E7069F080C080911B01811102C0B0921B01F6
S1130E8080911B01815080931B0174C080911A01D1
S1130E90811102C0B0921A0180911A01815080938D
S1130EA01A0168C080911601811103C010931601C4
S1130EB061C0E0911701F0E0E05EFE4F8081815057
S1130EC0808358C080911601811103C010931601CC
S1130ED051C0E0911701F0E0E45EFE4F8081815043
S1130EE0808348C0B29946C0809119018330A1F033
S1130EF08430F1F08230F1F580911601882329F0D5
S1130F00109216011092170135C0809114018823A4
S1130F1089F1109214012EC080911601811105C02F
S1130F20109326011092170125C01092160122C0B9
S1130F3080911601882319F0109216011BC08CE1D0
S1130F4091E00E94AE04882359F010932501009388
S1130F501901109317018CE191E00E94F5030AC076
S1130F601093240110922501109217018CE191E055
S1130F700E94F5032FEF8FE794E0215080409040CA
S1130F80E1F700C000009ECE817090788F5F80935F
S1130F901701F0CFBB274A3031F4992322F4BDE284
S1130FA0909581959F4F0C94D607BB27FB0155273D
S1130FB0AA27880F991FAA1FA41710F0A41B8395B2
S1130FC05051B9F7A05DAA3308F0A95DA193009729
S1130FD079F7B111B1931192CB010C94EF07DC01B5
S1130FE0FC01672F71917723E1F7329704C07C915C
S1130FF06D9370836291AE17BF07C8F30895F89498
S1051000FFCF1C
S113100254656D703A2000432020004D6F64653AA8
S113101220002E30004D6F64653A005365742070D1
S1131022617373776F72643A0050617373776F728E
S11310326420736574003D3E003C3D00456E74655A
S1131042722070617373776F72643A00496E636FD2
S113105272726563740070617373776F72640056A1
S113106261726961626C6573004D6F6465730054EB
S11310726573745F6D656E7500546573745F6D6539
S11310826E752E006D61785F74656D70006D696EAA
S11310925F74656D700068656174696E6700636F83
S11310A26F6C696E670062616C616E636500746582
S10710B2737433001C
S9030000FC
