S018000054656D705F636F6E74726F6C5F6D63752E7372656372
S11300000C9437000C9441030C9454000C94540049
S11300100C9454000C9454000C9454000C9454000C
S11300200C9454000C9454000C9454000C945400FC
S11300300C9454000C9454000C9454000C945400EC
S11300400C9454000C9454000C9454000C94FF022F
S11300500C94540074656D702E20636F6E74726F0F
S11300606C0057656C636F6D6520746F000011241C
S11300701FBECFE5D4E0DEBFCDBF10E0A0E6B0E008
S1130080EEEAF8E002C005900D92AC3CB107D9F756
S113009020E0ACECB0E001C01D92A73EB207E1F74E
S11300A00E946D030C9455040C940000D89A00C06F
S11300B0D8980895CF93C82F662311F0DA9A01C017
S11300C0DA98D998D79AD69AD59AD49ADC98DD98A2
S11300D0DE98DF98CC230CF4DC9AC6FDDD9AC5FDCE
S11300E0DE9AC4FDDF9A0E945600DC98DD98DE9803
S11300F0DF98C3FDDC9AC2FDDD9AC1FDDE9AC0FD26
S1130100DF9A0E945600DF9ADE9ADD9ADC9ACF913C
S11301100895882311F0DA9A01C0DA98D99AD79809
S1130120D698D598D498D89A00C089B3881F8827C0
S1130130881F8295807FCE998062CD998064CC9906
S11301408068D89800C0D89A00C0CF998160CE99B1
S11301508260CD998460CC998860D898089580E0B5
S11301600E9489008823DCF383E090E00197F1F793
S113017080E00E9489000895CF93C82F0E94AF00A9
S113018060E08C2F0E945A00CF910895611104C041
S113019080580E94BC00089580540E94BC000895B9
S11301A081E00E94BC000895CF93C82F0E94AF0045
S11301B0CA3049F4803410F080E001C080E48058F3
S11301C00E94BC0004C061E08C2F0E945A00CF91B1
S11301D00895CF93DF93EC012196FC01808188235D
S11301E029F00E94D40089918111FBCFDF91CF9136
S11301F00895CF93DF93EC012196FC018491882329
S113020039F00E94D400FE01849121968111F9CF26
S1130210DF91CF9108951F93CF93DF93182FD29A34
S1130220D19AD09AD79AD69AD59AD49A80E393E75A
S11302300197F1F7DE9ADF9A0E94560080EF93E26D
S11302400197F1F70E945600C5E7D0E0CE0101976F
S1130250F1F70E945600CE010197F1F7DF980E9452
S113026056002197F1F788E20E94BC0088E00E94C2
S1130270BC000E94D00086E00E94BC00812F0E9436
S1130280BC00DF91CF911F910895CF93DF9300D0ED
S11302901F92CDB7DEB780E2898380E38A831B8215
S11302A081E690E00E94E900CE0101960E94E900F7
S11302B061E080E00E94C6008FE690E00E94E900C1
S11302C0E091CC00F0E0EE0FFF1FE552FF4F80817C
S11302D091810E94E9000F900F900F90DF91CF91D0
S11302E008950E94D00060E083E00E94C60082E688
S11302F090E00E94F90061E081E00E94C60084E57C
S113030090E00E94F90008950F931F93CF93DF9319
S113031000D01F92CDB7DEB78CE30E94D400809149
S1130320D10081117FC08091CD00813021F130F066
S11303308230F1F1833009F458C041C1E091D30017
S1130340F091D400DF010D900020E9F7CF018A1B62
S11303509B0B41969695879560E00E94C600E091BC
S1130360CD00F0E0EE0FFF1FED52FF4F8081918131
S11303700E94E90024C1E091D500F091D600DF018C
S11303800D900020E9F7CF018A1B9B0B41969695AF
S1130390879560E00E94C600E091CD00F0E0EE0F8A
S11303A0FF1FED52FF4F808191810E94E90007C138
S11303B0E091D700F091D800DF010D900020E9F71B
S11303C0CF018A1B9B0B41969695879560E00E940E
S11303D0C600E091CD00F0E0EE0FFF1FED52FF4F9D
S11303E0808191810E94E900EAC0E091D900F091F6
S11303F0DA00DF010D900020E9F7CF018A1B9B0B87
S113040041969695879560E00E94C600E091CD00E4
S1130410F0E0EE0FFF1FED52FF4F808191810E94AB
S1130420E900CDC080916000813021F0823009F470
S113043064C0C5C0E091E300F091E400DF010D90D9
S11304400020E9F7CF018A1B9B0B4196969587956F
S113045060E00E94C600E0916000F0E0EE0FFF1F34
S1130460EF51FF4F808191810E94E9009091D0006B
S11304708DEC989F812D112486958695869520E391
S1130480280F2983880F282F220F220F820F981BF1
S1130490905D9A831B828091CC00811114C08E01DF
S11304A00F5F1F4FF80101900020E9F7C8018E1B70
S11304B09F0B41969695879561E00E94C600C801FE
S11304C00E94E9007CC08E010F5F1F4FF80101906C
S11304D00020E9F7C8018E1B9F0B409696958795DF
S11304E061E00E94C6008CE30E94D400C8010E940F
S11304F0E9008EE30E94D40062C0E091E500F0912F
S1130500E600DF010D900020E9F7CF018A1B9B0B69
S113051041969695879560E00E94C600E091600040
S1130520F0E0EE0FFF1FEF51FF4F808191810E9499
S1130530E9009091CF008DEC989F812D1124869530
S11305408695869520E3280F2983880F282F220F6C
S1130550220F820F981B905D9A831B828091CC009E
S1130560811114C08E010F5F1F4FF801019000200C
S1130570E9F7C8018E1B9F0B41969695879561E01C
S11305800E94C600C8010E94E90019C08E010F5FD5
S11305901F4FF80101900020E9F7C8018E1B9F0B43
S11305A040969695879561E00E94C6008CE30E9470
S11305B0D400C8010E94E9008EE30E94D40060E0E8
S11305C08FE00E94C6008EE30E94D4000F900F902B
S11305D00F90DF91CF911F910F9108950E94D00049
S11305E08091CE00811103C00E9471010895813071
S11305F019F40E94450108950E94840108951F92F0
S11306000F920FB60F9211242F933F934F935F9342
S11306106F937F938F939F93AF93BF93EF93FF93C6
S11306208091D2008F5F843619F08093D20004C089
S11306301092D2000E94EE02FF91EF91BF91AF9110
S11306409F918F917F916F915F914F913F912F91E6
S11306500F900FBE0F901F9018958BB78F7B8BBF99
S113066078942FEF8FE39BE0215080409040E1F796
S113067000C0000080E48ABF8BB780648BBFF8940D
S113068008951F920F920FB60F9211242F933F9348
S11306904F935F936F937F938F939F93AF93BF9386
S11306A0EF93FF938091CE0081708F5F8093CE0093
S11306B00E94EE020E942D03FF91EF91BF91AF9132
S11306C09F918F917F916F915F914F913F912F9166
S11306D00F900FBE0F901F901895E3EDF0E086E7A2
S11306E090E09183808380E890E09383828386E81E
S11306F090E09583848380E990E097838683E3EE9A
S1130700F0E08BE990E09183808384EA90E0938326
S11307108283EBEDF0E08DEA90E09183808385EBBA
S113072090E0938382838DEB90E09583848385ECC2
S113073090E0978386831092CF001092D00080EED1
S11307408ABB87E088BB17BA80E181BB81E28FBD99
S11307508AE08EBD80E890E099BD88BD8DE083BFBE
S113076088E48CBF82E089BF85BF80E48BBF789426
S11307708CE00E940B010E94D0000E94EE0234E63D
S113078021E0B09940C08091CE00823009F083C04E
S11307908091D10081110FC08091CD0090E001962D
S11307A083709078992324F401978C6F9F6F01963E
S11307B08093CD0070C08091CC00811107C08091DE
S11307C0600081708F5F8093600065C080916000DD
S11307D0813019F0823061F05EC08091D0008F5F6B
S11307E0843618F48093D00056C01092D00053C0C1
S11307F08091CF008F5F843618F48093CF004BC074
S11308001092CF0048C0B19934C08091CE0082309C
S113081009F041C08091D100811103C02093D1001F
S11308203AC08091CC00811105C080916000809312
S1130830CC0031C080916000813019F0823069F0C1
S11308402AC08091D000811102C03093D0008091E1
S1130850D00081508093D0001EC08091CF008111C0
S113086002C03093CF008091CF0081508093CF009D
S113087012C0B29910C08091CE00823061F4809190
S1130880CC00882319F01092CC0005C08091D100CF
S113089081111092D1004FEF8FE794E041508040D6
S11108A09040E1F700C000006CCFF894FFCF49
S11308AE0154656D70657261747572613A20004D04
S11308BE6F64653A20005661726961626C657300FB
S11308CE4D6F64657300546573745F6D656E75006A
S11308DE546573745F6D656E752E006D61785F740B
S11308EE656D70006D696E5F74656D70006865612D
S11308FE74696E6700636F6F6C696E670062616C1A
S10F090E616E636500746573743300004F
S9030000FC
