S018000054656D705F636F6E74726F6C5F6D63752E7372656372
S11300000C9437000C9495040C9454000C945400F4
S11300100C9454000C9454000C9454000C9454000C
S11300200C9454000C9454000C9454000C945400FC
S11300300C9454000C9454000C9454000C945400EC
S11300400C9454000C9454000C9454000C943E04EE
S11300500C94540074656D702E20636F6E74726F0F
S11300606C0057656C636F6D6520746F000011241C
S11300701FBECFE5D4E0DEBFCDBF11E0A0E6B0E007
S1130080EEEDF1E102C005900D92AE34B107D9F75F
S113009021E0AEE4B1E001C01D92A739B207E1F757
S11300A00E9446050C94ED080C940000979A00C039
S11300B097980895CF93C82F662311F0959A01C09D
S11300C095989698BC9ABD9ABE9ABF9AC798C698B6
S11300D0C598C498CC230CF4C79AC6FDC69AC5FD2E
S11300E0C59AC4FDC49A0E945600C798C698C5987C
S11300F0C498C3FDC79AC2FDC69AC1FDC59AC0FD86
S1130100C49A0E945600C49AC59AC69AC79ACF91B7
S11301100895882311F0959A01C09598969ABC98F1
S1130120BD98BE98BF98979A00C0B49B02C080E166
S113013001C080E0B5998062B6998064B7998068FF
S1130140979800C0979A00C0B4998160B59982606D
S1130150B6998460B79988609798089580E00E9462
S113016089008823DCF383E090E00197F1F780E0D5
S11301700E9489000895CF93C82F0E94AE0060E0CA
S11301808C2F0E945A00CF910895611104C08058A9
S11301900E94BB00089580540E94BB00089581E032
S11301A00E94BB000895CF93C82F0E94AE00CA30AE
S11301B049F4803410F080E001C080E480580E944B
S11301C0BB0004C061E08C2F0E945A00CF910895B7
S11301D0CF93DF93EC012196FC018081882329F0E1
S11301E00E94D30089918111FBCFDF91CF910895B3
S11301F0CF93DF93EC012196FC018491882339F09D
S11302000E94D300FE01849121968111F9CFDF91E0
S1130210CF9108951F93CF93DF93182F8D9A8E9AC1
S11302208F9ABC9ABD9ABE9ABF9A80E393E70197CE
S1130230F1F7C59AC49A0E94560080EF93E20197A1
S1130240F1F70E945600C5E7D0E0CE010197F1F71F
S11302500E945600CE010197F1F7C4980E945600FF
S11302602197F1F788E20E94BB0088E00E94BB005E
S11302700E94CF0086E00E94BB00812F0E94BB0039
S1130280DF91CF911F910895CF93DF93CDB7DEB760
S113029060970FB6F894DEBF0FBECDBF0E94CF00AB
S11302A080916A014AE0BE016F5F7F4F90E00E9437
S11302B0B80880E690E00E94E800CE0101960E9412
S11302C0E8008EE20E94D30080917601882321F019
S11302D085E30E94D30003C080E30E94D3008FED26
S11302E00E94D30087E690E00E94E80061E080E08D
S11302F00E94C5008BE690E00E94E800E0914F0167
S1130300F0E0EE0FFF1FED57FE4F808191810E94B8
S1130310E80060960FB6F894DEBF0FBECDBFDF9144
S1130320CF9108950E94CF0060E083E00E94C50051
S113033082E690E00E94F80061E081E00E94C5003E
S113034084E590E00E94F8000895CF93DF9300D0F5
S113035000D0CDB7DEB70E94CF008CE30E94D3005B
S113036080914E01811123C0E0915201F0E0EE0F23
S1130370FF1FE459FE4F0190F081E02DDF010D9045
S11303800020E9F7CF018A1B9B0B41969695879530
S113039060E00E94C500E0915201F0E0EE0FFF1F03
S11303A0E459FE4F808191810E94E80069C18091E7
S11303B05201811190C0E0915101F0E0EE0FFF1F56
S11303C0E557FE4F0190F081E02DDF010D900020F4
S11303D0E9F7CF018A1B9B0B41969695879560E0C0
S11303E00E94C500E0915101F0E0EE0FFF1FE557B8
S11303F0FE4F808191810E94E8008091500181111B
S113040032C061E086E00E94C500E0915101E33012
S1130410A0F4F0E0E75AFE4F80814AE0BE016F5F2E
S11304207F4F90E00E94B8080E94E8008FED0E9480
S1130430D30083E40E94D30023C180E20E94D3004E
S1130440E0915101F0E0E75AFE4F80814AE0BE019D
S11304506F5F7F4F90E00E94B8080E94E80080E23E
S11304600E94D3000DC161E085E00E94C5008CE3C9
S11304700E94D300E0915101E330A0F4F0E0E75A88
S1130480FE4F80814AE0BE016F5F7F4F90E00E9483
S1130490B8080E94E8008FED0E94D30083E40E9414
S11304A0D30015C080E20E94D300E0915101F0E036
S11304B0E75AFE4F80814AE0BE016F5F7F4F90E0B4
S11304C00E94B8080E94E80080E20E94D3008EE3F4
S11304D00E94D300D5C0813089F560E085E00E9498
S11304E0C50082E790E00E94E800E0915101F0E04D
S11304F0EE0FFF1FED57FE4F0190F081E02DDF015D
S11305000D900020E9F7CF018A1B9B0B0F9696955F
S1130510879561E00E94C5008CE30E94D300E091BE
S11305205101F0E0EE0FFF1FED57FE4F80819181E6
S11305300E94E8008EE30E94D300A2C0E091510122
S1130540F0E0EE0FFF1FE958FE4F0190F081E02D1F
S1130550DF010D900020E9F7CF018A1B9B0B419628
S11305609695879560E00E94C500E0915101F0E006
S1130570EE0FFF1FE958FE4F808191810E94E80031
S11305808091500181113CC061E086E00E94C50069
S1130590E09151018FEF8E0F8230A0F4F0E0EC5A1D
S11305A0FE4F80814AE0BE016F5F7F4F90E00E9462
S11305B0B8080E94E8008FED0E94D30083E40E94F3
S11305C0D3005EC080E20E94D300E0915101F0E0CC
S11305D0EC5AFE4F80814AE0BE016F5F7F4F90E08E
S11305E00E94B8080E94E80080E20E94D300809133
S11305F05101833009F044C080E20E94D30040C01E
S113060061E085E00E94C5008CE30E94D300E09184
S113061051018FEF8E0F8230A0F4F0E0EC5AFE4FC0
S113062080814AE0BE016F5F7F4F90E00E94B8086E
S11306300E94E8008FED0E94D30083E40E94D3005F
S11306401CC080E20E94D300E0915101F0E0EC5A1A
S1130650FE4F80814AE0BE016F5F7F4F90E00E94B1
S1130660B8080E94E80080E20E94D3008091510102
S1130670833019F480E20E94D3008EE30E94D300F9
S113068060E08FE00E94C5008EE30E94D3000F90CB
S11306900F900F900F90DF91CF910895FC0180E3AC
S11306A0808381838283838308950F931F93CF93E1
S11306B0DF9380916901811136C00E94CF0060E010
S11306C081E00E94C50088E790E00E94E80061E0B4
S11306D084E00E94C50003E611E0C0E0809151016E
S11306E08C1317C080915001811102C080E201C0B7
S11306F08CE30E94D300F80180810E94D300809192
S11307005001811102C080E201C08EE30E94D30037
S113071004C0F80180810E94D300CF5F0F5F1F4F98
S1130720C430E1F620C00E94CF0060E082E00E9465
S1130730C50086E890E00E94E80061E084E00E9441
S1130740C50083E990E00E94E800C3E6D1E007E633
S113075011E089910E94D300C017D107D1F786E92F
S113076090E00E94E800DF91CF911F910F910895CE
S11307700F931F93CF9380916701811132C00E9420
S1130780CF0089E990E00E94E80061E084E00E94E3
S1130790C5000FE511E0C0E0809151018C1317C032
S11307A080915001811102C080E201C08CE30E945B
S11307B0D300F80180810E94D300809150018111FF
S11307C002C080E201C08EE30E94D30004C0F8019D
S11307D080810E94D300CF5F0F5F1F4FC430E1F6CA
S11307E012C00E94CF0060E083E00E94C50089EA45
S11307F090E00E94E80061E084E00E94C50083EB81
S113080090E00E94E800CF911F910F910895FC01A0
S113081030812091630132130DC03196A4E6B1E01A
S1130820049631912D91321307C0E817F907C9F7DF
S113083081E0089580E0089580E008950E94CF004B
S113084080915301823089F028F4882341F081306B
S113085049F00895833061F0843069F008950E946E
S1130860920108950E94440108950E94A5010895EB
S11308700E94550308950E94B80308951F920F9291
S11308800FB60F9211242F933F934F935F936F935F
S11308907F938F939F93AF93BF93EF93FF930E94A4
S11308A01E04809174018130D9F480E090E090912D
S11308B08101A0E0B0E0072E79E0B695A795979561
S11308C087957A95D1F7702D282F21702093760182
S11308D0B695A7959795879580936A0110927401B0
S11308E0FF91EF91BF91AF919F918F917F916F9104
S11308F05F914F913F912F910F900FBE0F901F90DA
S113090018958BB78F7B8BBF78942FEF8FE39BE089
S1130910215080409040E1F700C0000080E48ABF8D
S11309208BB780648BBFF89408951F920F920FB613
S11309300F9211242F933F934F935F936F937F9361
S11309408F939F93AF93BF93EF93FF938091530142
S11309508230E9F028F4882341F0813051F02CC032
S11309608330E9F0843019F127C083E08093530188
S113097023C080916801882311F082E001C084E0E3
S113098080935301109251011092500115C081E0DF
S11309908093530110926801109252010DC080910E
S11309A06901882349F081E08093530105C01092C6
S11309B0670181E0809353010E941E040E94810418
S11309C0FF91EF91BF91AF919F918F917F916F9123
S11309D05F914F913F912F910F900FBE0F901F90F9
S11309E01895FC0110821182128213821482161649
S11309F064F43596660F770B6B5F7F4F860F971FF6
S1130A0011921192E817F907D9F70895CF93DF935C
S1130A109C01FB01408181819281A381B481820F79
S1130A20931FA11DB11DC42FCC0FDD0BC60FD71F03
S1130A306D817E81861B970BA109B1098183928305
S1130A40A383B4833E832D834F5F403211F04083F0
S1130A5001C01082689414F8B695A7959795879568
S1130A601694D1F7DF91CF91089597B1987F97B9F4
S1130A7097B1892B87B9369A3699FECF84B195B14F
S1130A80089586E886B980EC87B90895CF93DF93FB
S1130A90CDB7DEB7C554D1090FB6F894DEBF0FBE8B
S1130AA0CDBFECE6F1E08CEB90E09183808386ECA3
S1130AB090E0938382838CEC90E095838483EBE8CD
S1130AC0F1E082ED90E0918380838BED90E093835D
S1130AD0828384EE90E0958384838DEE90E0978307
S1130AE0868387EF90E0918780878FEF90E09387EC
S1130AF08287E7E7F1E088E091E09183808383E1F6
S1130B0091E0938382838EE191E09583848388E2EC
S1130B1091E09783868384E391E091878087E3E87B
S1130B20F1E08FE391E09183808384E491E0938307
S1130B30828389E491E0958384838FE591E00E9428
S1130B404E0383E691E00E944E03E9E5F1E083E67B
S1130B5080831182128282E08383148291E09583E0
S1130B60E4E5F1E0808392E391831282138214829C
S1130B7096E09ABB1BBA97E098BB17BA90E191BB79
S1130B8091E29FBD9AE09EBD20E830E039BD28BDCA
S1130B909DE093BF98E49CBF89BF85BF80E48BBF71
S1130BA078948CE00E940A010E94CF000E941E04E7
S1130BB060E2CE0101960E94F1040E9441057894FE
S1130BC0812C912C54017724739409E511E06894E5
S1130BD0552451F80F2EF4E5CF2EF1E0DF2EF02D41
S1130BE00F2EF6E06F2EF02D412C0F2EF3E0EF2E9A
S1130BF0F12CF02D0F2EF5E03F2EF02D212C80E06E
S1130C000E943505BE016F5F7F4F0E9406059093D9
S1130C108201809381014A815B816C817D81940191
S1130C20241B350BC901992324F488279927821B97
S1130C30930B41970CF44AC070927401D801129638
S1130C40FC91E0916A018F2F90E08E1B91099C0129
S1130C5022F422273327281B390BD80113968C91B1
S1130C6090E08217930750F580914F01813081F015
S1130C7018F08230C9F028C0FE1730F48BB38170AD
S1130C808BBB4A015B0122C0D99A4A015B011EC099
S1130C90EF1730F48BB381708BBB4A015B0116C034
S1130CA0DA9A4A015B0112C0EF1720F4D99A4A017B
S1130CB05B010CC0DA9A4A015B0108C08BB38170F6
S1130CC08BBB4A015B0102C04A015B01B099EEC0D3
S1130CD080915301833009F4B1C0843009F4CAC04F
S1130CE0823009F004C280914E0181110AC08091C2
S1130CF0520190E00196B7010E949008809352013E
S1130D00F6C18091500181110FC08091510190E092
S1130D10019620915201222309F4FBC1213009F4E8
S1130D20F0C1632D722DF7C180915201811148C029
S1130D3080915101282F30E0F901E75AFE4F90814C
S1130D409F5F90838230E1F028F4882349F081305A
S1130D5079F0CDC1843021F1D8F0853049F1C7C193
S1130D60943608F4C4C1F901E75AFE4F1082BFC19A
S1130D70943608F4BCC1F901E75AFE4F1082B7C19A
S1130D80943608F4B4C1F901E75AFE4F1082AFC19A
S1130D909F3108F4ACC1F901E75AFE4F1082A7C194
S1130DA09B3F08F4A4C1F901E75AFE4F10829FC18A
S1130DB09B3F08F49CC1F901E75AFE4F108297C18A
S1130DC0823009F094C190915101292F30E0F9014A
S1130DD0EC5AFE4F80818F5F80839230D9F028F4E3
S1130DE0992341F0913071F082C19330D9F094305D
S1130DF0F9F07DC1833308F47AC1F901EC5AFE4F4E
S1130E00708275C1843608F472C1F901EC5AFE4F40
S1130E1010826DC1843608F46AC1F901EC5AFE4FA0
S1130E20108265C1F901EC5AFE4F817080835FC165
S1130E30F901EC5AFE4F8170808359C180915001B1
S1130E4081110FC08091510190E0019683709078D8
S1130E50992324F401978C6F9F6F0196809351011D
S1130E6046C1E0915101F0E0ED59FE4F80818F5F62
S1130E7080833DC18091500181110FC08091510147
S1130E8090E0019683709078992324F401978C6FF5
S1130E909F6F0196809351012AC1E0915101F0E0C6
S1130EA0E15AFE4F80818F5F808321C1B199D9C0FF
S1130EB080915301833009F4B4C0843009F4C1C073
S1130EC0823009F014C180914E0181110BC07092DF
S1130ED04E0190915201913011F480914F01809311
S1130EE0510105C180915001811103C070925001DC
S1130EF0FEC08091520181114FC0E0915101E23056
S1130F00E9F028F4EE2349F0E13071F03EC0E4301A
S1130F1049F1F0F0E53081F138C0D8018C918111AC
S1130F2034C024E62C9331C0D80111968C911197CA
S1130F3081112BC024E611962C9327C0D801129658
S1130F408C911297811121C024E612962C931DC016
S1130F50D80113968C911397811117C02FE1139622
S1130F602C9313C0D80114968C91149781110DC041
S1130F702BEF14962C9309C0D80115968C911597D4
S1130F80811103C02BEF15962C93F0E0E75AFE4F26
S1130F90808181508083ABC0823009F0A8C0E09189
S1130FA05101E230E1F028F4EE2341F0E13069F040
S1130FB031C0E330F1F0E43029F12CC0D6018C913A
S1130FC0823040F523E32C9325C0D60111968C91F1
S1130FD0119781111FC024E611962C931BC0D601D2
S1130FE012968C911297811115C024E612962C93B7
S1130FF011C0D60113968C91139781708F5F13964D
S11310008C9308C0D60114968C91149781708F5FCD
S113101014968C93F0E0EC5AFE4F808181508083CB
S113102066C080915001811103C0709250015FC06D
S1131030E0915101F0E0ED59FE4F808181508083B1
S113104056C080915001811103C0709250014FC06D
S1131050E0915101F0E0E15AFE4F8081815080839C
S113106046C0B29944C080915301833091F08430DA
S1131070E1F08230E1F580915001882319F010925B
S1131080500135C080914E01882389F110924E01A0
S11310902EC080915001811105C070926901109297
S11310A0510125C01092500122C080915001882323
S11310B019F0109250011BC08FE591E00E940704C3
S11310C0882359F070926801509253017092510133
S11310D08FE591E00E944E030AC07092670110925E
S11310E06801109251018FE591E00E944E03BFEF19
S11310F02FE784E0B15020408040E1F700C00000B9
S11311007ECDB7010E9490088093510180934F01D6
S1131110EECF662D742D0E94900880935101E7CF85
S113112097FB072E16F4009407D077FD09D00E9490
S1131130A40807FC05D03EF4909581959F4F08952F
S1131140709561957F4F0895AA1BBB1B51E107C0A1
S1131150AA1FBB1FA617B70710F0A61BB70B881F43
S1131160991F5A95A9F780959095BC01CD010895D2
S1131170BB274A3031F4992322F4BDE2909581953E
S11311809F4F0C94C408BB27FB015527AA27880F3F
S1131190991FAA1FA41710F0A41B83955051B9F7E7
S11311A0A05DAA3308F0A95DA193009779F7B11166
S11311B0B1931192CB010C94DD08DC01FC01672F83
S11311C071917723E1F7329704C07C916D9370831A
S11111D06291AE17BF07C8F30895F894FFCFDD
S11311DE54656D703A2000432020004D6F64653ACB
S11311EE20004D6F64653A0053657420706173730B
S11311FE776F72643A0050617373776F7264207301
S113120E6574003D3E003C3D00456E746572207071
S113121E617373776F72643A00496E636F727265AD
S113122E63740070617373776F72640056617269D0
S113123E61626C6573004D6F64657300416C61721D
S113124E6D006D61782074656D70006D696E20742B
S113125E656D70007365742074656D700074656DD2
S113126E702064696666006F6E2074696D65006F28
S113127E66662074696D6500616C61726D206469C7
S113128E666600616C61726D206869676800616CE6
S113129E61726D206C6F7700616C61726D20757375
S11312AE616765006C6F636B2075736167650068B9
S11112BE65617400636F6F6C0062616C000008
S9030000FC
