S018000054656D705F636F6E74726F6C5F6D63752E7372656372
S11300000C942A000C94AD040C9447000C94470003
S11300100C9447000C9447000C9447000C94470040
S11300200C9447000C9447000C9447000C94470030
S11300300C9447000C9447000C9447000C94470020
S11300400C9447000C9447000C9447000C945604FD
S11300500C94470011241FBECFE5D4E0DEBFCDBF12
S113006011E0A0E6B0E0E8E3F3E102C005900D92F0
S1130070AE37B107D9F721E0AEE7B1E001C01D9278
S1130080A83CB207E1F70E949F050C949A090C94CE
S11300900000979A00C097980895CF93C82F6623BD
S11300A011F0959A01C095989698BC9ABD9ABE9AFB
S11300B0BF9AC798C698C598C498CC230CF4C79A1D
S11300C0C6FDC69AC5FDC59AC4FDC49A0E944900DE
S11300D0C798C698C598C498C3FDC79AC2FDC69A66
S11300E0C1FDC59AC0FDC49A0E944900C49AC59A2C
S11300F0C69AC79ACF910895882311F0959A01C0A2
S11301009598969ABC98BD98BE98BF98979A00C047
S1130110B49B02C080E101C080E0B5998062B699C9
S11301208064B7998068979800C0979A00C0B49982
S11301308160B5998260B6998460B7998860979810
S1130140089580E00E947C008823DCF383E090E043
S11301500197F1F780E00E947C000895CF93C82FA7
S11301600E94A10060E08C2F0E944D00CF91089561
S1130170CF93C82F0E94A10061E08C2F0E944D00F4
S1130180CF910895611104C080580E94AE00089573
S113019080540E94AE00089581E00E94AE0008954C
S11301A0CF93C82F0E94A100CA3049F4803410F0C4
S11301B080E001C080E480580E94AE0004C061E089
S11301C08C2F0E944D00CF910895CF93DF93EC01C3
S11301D02196FC018081882329F00E94D000899116
S11301E08111FBCFDF91CF9108951F93CF93DF93BC
S11301F0182F8D9A8E9A8F9ABC9ABD9ABE9ABF9ADE
S113020080E393E70197F1F7C59AC49A0E944900E5
S113021080EF93E20197F1F70E944900C5E7D0E02F
S1130220CE010197F1F70E944900CE010197F1F741
S1130230C4980E9449002197F1F788E20E94AE0019
S113024088E00E94AE000E94CC0086E00E94AE00CE
S1130250812F0E94AE00DF91CF911F910895CF931B
S1130260DF93CDB7DEB760970FB6F894DEBF0FBE4D
S1130270CDBF0E94CC0080919B014AE0BE016F5F1C
S11302807F4F90E00E94650980E690E00E94E500BF
S1130290CE0101960E94E5008EE20E94D00080917A
S11302A0A701882321F085E30E94D00003C080E3E6
S11302B00E94D0008FED0E94D00087E690E00E945B
S11302C0E50061E080E00E94C2008BE690E00E94BD
S11302D0E500E0917F01F0E0EE0FFF1FEC54FE4FCC
S11302E0808191810E94E50061E08BE00E94C20060
S11302F080918801882319F080E00E94D00061E099
S11303008DE00E94C20080918701882319F081E06A
S11303100E94D00060960FB6F894DEBF0FBECDBF2A
S1130320DF91CF9108950E94CC0060E083E00E94A9
S1130330C20082E790E00E94E50061E081E00E9453
S1130340C2008DE790E00E94E5000895CF93DF930B
S113035000D000D0CDB7DEB70E94CC008CE30E9461
S1130360D00080917E01811123C0E0918201F0E0F0
S1130370EE0FFF1FE356FE4F0190F081E02DDF01E9
S11303800D900020E9F7CF018A1B9B0B41969695AF
S1130390879560E00E94C200E0918201F0E0EE0FD8
S11303A0FF1FE356FE4F808191810E94E50069C1E1
S11303B080918201811190C0E0918101F0E0EE0F03
S11303C0FF1FE454FE4F0190F081E02DDF010D90FA
S11303D00020E9F7CF018A1B9B0B419696958795E0
S11303E060E00E94C200E0918101F0E0EE0FFF1F87
S11303F0E454FE4F808191810E94E5008091800148
S1130400811132C061E086E00E94C200E091810166
S1130410E330A0F4F0E0E757FE4F80814AE0BE01EC
S11304206F5F7F4F90E00E9465090E94E5008FEDA9
S11304300E94D00083E40E94D00023C180E20E9485
S1130440D000E0918101F0E0E757FE4F80814AE05F
S1130450BE016F5F7F4F90E00E9465090E94E50036
S113046080E20E94D0000DC161E085E00E94C200DC
S11304708CE30E94D000E0918101E330A0F4F0E02D
S1130480E757FE4F80814AE0BE016F5F7F4F90E0E7
S11304900E9465090E94E5008FED0E94D00083E46C
S11304A00E94D00015C080E20E94D000E09181013A
S11304B0F0E0E757FE4F80814AE0BE016F5F7F4F57
S11304C090E00E9465090E94E50080E20E94D0004D
S11304D08EE30E94D000D5C0813089F560E085E0CC
S11304E00E94C2008BE890E00E94E500E091810147
S11304F0F0E0EE0FFF1FEC54FE4F0190F081E02D71
S1130500DF010D900020E9F7CF018A1B9B0B0F96AA
S11305109695879561E00E94C2008CE30E94D0000A
S1130520E0918101F0E0EE0FFF1FEC54FE4F80815B
S113053091810E94E5008EE30E94D000A2C0E09168
S11305408101F0E0EE0FFF1FE855FE4F0190F081AE
S1130550E02DDF010D900020E9F7CF018A1B9B0BF2
S113056041969695879560E00E94C200E0918101D2
S1130570F0E0EE0FFF1FE855FE4F808191810E944D
S1130580E5008091800181113CC061E086E00E9419
S1130590C200E09181018FEF8E0F8230A0F4F0E071
S11305A0EC57FE4F80814AE0BE016F5F7F4F90E0C1
S11305B00E9465090E94E5008FED0E94D00083E44B
S11305C00E94D0005EC080E20E94D000E0918101D0
S11305D0F0E0EC57FE4F80814AE0BE016F5F7F4F31
S11305E090E00E9465090E94E50080E20E94D0002C
S11305F080918101833009F044C080E20E94D000E0
S113060040C061E085E00E94C2008CE30E94D000FB
S1130610E09181018FEF8E0F8230A0F4F0E0EC576F
S1130620FE4F80814AE0BE016F5F7F4F90E00E94E1
S113063065090E94E5008FED0E94D00083E40E94CA
S1130640D0001CC080E20E94D000E0918101F0E063
S1130650EC57FE4F80814AE0BE016F5F7F4F90E010
S11306600E9465090E94E50080E20E94D00080910A
S11306708101833019F480E20E94D0008EE30E944D
S1130680D00060E08FE00E94C2008EE30E94D000A0
S11306900F900F900F900F90DF91CF910895FC0170
S11306A080E3808381838283838308950F931F93E0
S11306B0CF93DF9380919A01811136C00E94CC00C0
S11306C060E081E00E94C20081E990E00E94E500C0
S11306D061E084E00E94C20003E911E0C0E080917F
S11306E081018C1317C080918001811102C080E2C6
S11306F001C08CE30E94D000F80180810E94D000E8
S113070080918001811102C080E201C08EE30E94C9
S1130710D00004C0F80180810E94D000CF5F0F5F39
S11307201F4FC430E1F637C080919901882309F145
S11307300E94CC0060E082E00E94C2008FE990E059
S11307400E94E50061E084E00E94C2008CEA90E02F
S11307500E94E500C3E9D1E007E911E089910E9414
S1130760D000C017D107D1F78FEA90E00E94E500CE
S113077012C00E94CC0060E082E00E94C20082EBC2
S113078090E00E94E50061E086E00E94C2008FEBE9
S113079090E00E94E500DF91CF911F910F910895A1
S11307A00F931F93CF9380919701811132C00E94C0
S11307B0CC0084EC90E00E94E50061E084E00E94BB
S11307C0C2000FE811E0C0E0809181018C1317C0D2
S11307D080918001811102C080E201C08CE30E94FB
S11307E0D000F80180810E94D000809180018111A5
S11307F002C080E201C08EE30E94D00004C0F80170
S113080080810E94D000CF5F0F5F1F4FC430E1F69C
S113081012C00E94CC0060E083E00E94C20084ED1C
S113082090E00E94E50061E084E00E94C2008EED49
S113083090E00E94E500CF911F910F910895FC0173
S113084030812091930132130DC03196A4E9B1E0B7
S1130850049631912D91321307C0E817F907C9F7AF
S113086081E0089580E0089580E008950E94CC001E
S113087080918301823089F028F4882341F081300B
S113088049F00895833061F0843069F008950E943E
S1130890930108950E942F0108950E94A6010895CE
S11308A00E94560308950E94D00308951F920F9248
S11308B00FB60F9211242F933F934F935F936F932F
S11308C07F938F939F93AF93BF93EF93FF930E9474
S11308D036048091A5018130D9F480E090E09091B4
S11308E0B201A0E0B0E0072E79E0B695A795979500
S11308F087957A95D1F7702D282F21702093A70121
S1130900B695A7959795879580939B011092A5011D
S1130910FF91EF91BF91AF919F918F917F916F91D3
S11309205F914F913F912F910F900FBE0F901F90A9
S113093018958BB78F7B8BBF78942FEF8FE39BE059
S1130940215080409040E1F700C0000080E48ABF5D
S11309508BB780648BBFF89408951F920F920FB6E3
S11309600F9211242F933F934F935F936F937F9331
S11309708F939F93AF93BF93EF93FF9380918301E2
S11309808230C9F028F4882341F0813051F030C01E
S1130990833009F1843039F12BC083E080938301E3
S11309A027C080919801882311F082E001C084E07F
S11309B0809383011DC081E080938301909199010C
S11309C0911180E08093980110928201109280012D
S11309D010927E010DC080919A01882349F081E034
S11309E08093830105C01092970181E08093830175
S11309F00E9436040E949904FF91EF91BF91AF9138
S1130A009F918F917F916F915F914F913F912F9122
S1130A100F900FBE0F901F901895FC011082118249
S1130A20128213821482161664F43596660F770BBD
S1130A306B5F7F4F860F971F11921192E817F9078A
S1130A40D9F70895CF93DF939C01FB014081818105
S1130A509281A381B481820F931FA11DB11DC42F64
S1130A60CC0FDD0BC60FD71F6D817E81861B970BC4
S1130A70A109B10981839283A383B4833E832D8327
S1130A804F5F403211F0408301C01082689414F823
S1130A90B695A795979587951694D1F7DF91CF9141
S1130AA0089597B1987F97B997B1892B87B9369AEA
S1130AB03699FECF84B195B1089586E886B980EC65
S1130AC087B9089580E40E94AE008EE00E94B800C9
S1130AD081E10E94B80081E10E94B8008FE10E9488
S1130AE0B8008BE10E94B8008FE10E94B8008FE14A
S1130AF00E94B80080E00E94B80080E00E94D0000C
S1130B0088E40E94AE0080E00E94B80084E00E9465
S1130B10B8008EE00E94B8008EE00E94B8008EE01B
S1130B200E94B8008FE10E94B80084E00E94B800DF
S1130B3080E00E94B80081E00E94D0000895CF9325
S1130B40DF93CDB7DEB7C554D1090FB6F894DEBF35
S1130B500FBECDBFEDE9F1E087EE90E09183808395
S1130B6081EF90E09383828387EF90E09583848381
S1130B70ECEBF1E08DEF90E09183808386E091E0EF
S1130B80938382838FE091E09583848388E191E06D
S1130B909783868382E291E0918780878AE291E05D
S1130BA093878287E8EAF1E083E391E0918380838D
S1130BB08EE391E09383828389E491E09583848337
S1130BC083E591E0978386838FE591E09187808721
S1130BD0E4EBF1E08AE691E0918380838FE691E093
S1130BE09383828384E791E0958384838FE891E003
S1130BF00E944F0383E991E00E944F03E9E8F1E08A
S1130C0083E680831182128282E08383148291E0DE
S1130C109583E4E8F1E0808392E391831282138266
S1130C20148296E89ABB1BBADF9A97E098BB17BA6E
S1130C3090E191BB91E29FBD9AE09EBD20E830E037
S1130C4039BD28BD9DE093BF98E49CBF89BF85BF93
S1130C5080E48BBF78948CE00E94F5000E946205CA
S1130C600E94CC000E94360460E2CE0101960E94EC
S1130C700D050E945D057894812C912C54017724F4
S1130C80739409E811E06894552451F80F2EF4E8A0
S1130C90CF2EF1E0DF2EF02D0F2EF6E06F2EF02D8B
S1130CA0412C0F2EF3E0EF2EF12CF02D0F2EF5E05A
S1130CB03F2EF02D212C80E00E945105BE016F5F74
S1130CC07F4F0E9422059093B3018093B2014A8121
S1130CD05B816C817D819401241B350BC9019923AF
S1130CE024F488279927821B930B41970CF44AC05C
S1130CF07092A501D8011296FC91E0919B018F2F6F
S1130D0090E08E1B91099C0122F422273327281B93
S1130D10390BD80113968C9190E08217930750F504
S1130D2080917F01813081F018F08230C9F028C0B1
S1130D30FE1730F48BB381708BBB4A015B0122C078
S1130D40D99A4A015B011EC0EF1730F48BB381704E
S1130D508BBB4A015B0116C0DA9A4A015B0112C0DF
S1130D60EF1720F4D99A4A015B010CC0DA9A4A01C0
S1130D705B0108C08BB381708BBB4A015B0102C06D
S1130D804A015B01B0990EC180918301833009F45B
S1130D90D1C0843009F4EAC0823009F055C2809190
S1130DA07E0181110AC08091820190E00196B70111
S1130DB00E943D098093820147C280918001811184
S1130DC00FC08091810190E001962091820122233D
S1130DD009F44CC2213009F441C2632D722D48C27A
S1130DE080918201811162C080918101282F30E0BD
S1130DF0F901E757FE4F90819F5F9083823091F114
S1130E0028F4882351F08130E9F01EC28430F1F1D6
S1130E10A8F1853009F442C017C2943640F0F901B4
S1130E20E757FE4FD80111968C918F5F8083F901AB
S1130E30E757FE4F8081F8019281891708F004C2B8
S1130E40828302C2D8018C91981728F0F901E757E0
S1130E50FE4F1082F9C1F8018281891708F0F4C1AC
S1130E609283F2C1D8018C91891708F0EDC11196D3
S1130E708C91F901E757FE4F8083E6C19F3108F456
S1130E80E3C1F901E757FE4F1082DEC19B3F08F42E
S1130E90DBC1F901E757FE4F1082D6C19B3F08F42E
S1130EA0D3C1F901E757FE4F1082CEC1823009F059
S1130EB0CBC190918101292F30E0F901EC57FE4F0D
S1130EC080818F5F80839230F9F028F4992341F078
S1130ED0913071F0B9C1933009F1943029F1B4C162
S1130EE0833308F4B1C1F901EC57FE4F7082ACC1F1
S1130EF0843608F4A9C1F901EC57FE4FD6011296C5
S1130F008C918F5F8083A0C1F6019181891708F4C9
S1130F109BC1F901EC57FE4F108296C1F901EC57C1
S1130F20FE4F8170808390C1F901EC57FE4F8170B0
S1130F3080838AC18091800181110FC080918101D9
S1130F4090E0019683709078992324F401978C6F34
S1130F509F6F01968093810177C1E0918101F0E058
S1130F60ED56FE4F80818F5F80836EC1809180013A
S1130F7081110FC08091810190E001968370907877
S1130F80992324F401978C6F9F6F019680938101BC
S1130F905BC1E0918101F0E0E157FE4F80818F5FFA
S1130FA0808352C1B199F9C080918301833009F4DF
S1130FB0D4C0843009F4E1C0823009F045C1809185
S1130FC07E0181110BC070927E019091820191305B
S1130FD011F480917F018093810136C18091800159
S1130FE0811103C0709280012FC18091820181110F
S1130FF06FC0E0918101E230C9F128F4EE2359F089
S1131000E130F1F05EC0E43009F448C0E8F1E530C5
S113101009F44EC056C0D8019C9111968C91119739
S1131020891710F0F4E6FC93D8018C9112969C91E8
S11310301297891708F045C0815012968C9341C0CD
S1131040D80111968C911197811103C08C9111963E
S11310508C93D80111968C91119712969C911297AA
S1131060891778F5815012968C932BC0D80112966B
S11310709C91129711968C911197891710F18C916C
S11310808F5F12968C931DC0D80113968C91139781
S1131090811117C0FFE11396FC9313C0D801149675
S11310A08C91149781110DC0FBEF1496FC9309C029
S11310B0D80115968C911597811103C0FBEF1596F5
S11310C0FC93F0E0E757FE4F808181508083BCC0E1
S11310D0823009F0B9C0E0918101E230E1F028F4F6
S11310E0EE2341F0E13069F031C0E330F1F0E43057
S11310F029F12CC0D6018C91823040F5F3E3FC93A6
S113110025C0D60111968C91119781111FC0F4E668
S11311101196FC931BC0D60112968C9112978111E3
S113112015C0F4E61296FC9311C0D60113968C9167
S1131130139781708F5F13968C9308C0D601149611
S11311408C91149781708F5F14968C93F0E0EC5718
S1131150FE4F80818150808377C08091800181110E
S113116003C07092800170C0E0918101F0E0ED56FF
S1131170FE4F80818150808367C0809180018111FE
S113118003C07092800160C0E0918101F0E0E157FA
S1131190FE4F80818150808357C0B29955C08091A1
S11311A083018330A1F0843069F1823009F04CC0AE
S11311B080918001882319F01092800145C08091AC
S11311C07E01882309F440C010927E013DC08091C5
S11311D08001811114C070929A0189E791E00E9404
S11311E01F04972D811190E090939901972D8111FF
S11311F001C090E0909398011092810125C0109253
S1131200800122C080918001882319F0109280010E
S11312101BC08FE891E00E941F04882359F070924C
S1131220980150928301709281018FE891E00E94AD
S11312304F030AC070929701109298011092810195
S11312408FE891E00E944F03BFEFEFE7F4E0B15065
S1131250E040F040E1F700C000002DCDB7010E944E
S11312603D098093810180937F01EECF662D742D1B
S11312700E943D0980938101E7CF97FB072E16F466
S1131280009407D077FD09D00E94510907FC05D0CE
S11312903EF4909581959F4F0895709561957F4F89
S11312A00895AA1BBB1B51E107C0AA1FBB1FA617A9
S11312B0B70710F0A61BB70B881F991F5A95A9F7FB
S11312C080959095BC01CD010895BB274A3031F437
S11312D0992322F4BDE2909581959F4F0C94710956
S11312E0BB27FB015527AA27880F991FAA1FA417FC
S11312F010F0A41B83955051B9F7A05DAA3308F0F0
S1131300A95DA193009779F7B111B1931192CB0123
S11313100C948A09DC01FC01672F71917723E1F7B2
S1131320329704C07C916D9370836291AE17BF07AE
S10B1330C8F30895F894FFCFFF
S113133854656D703A2000432020004D6F64653A6F
S1131348200057656C636F6D6520746F0074656D5C
S1131358702E20636F6E74726F6C004D6F64653A03
S1131368005365742070617373776F72643A005028
S1131378617373776F726420736574003D3E003C3B
S11313883D0050617373776F7264206E6F740075DB
S113139873656400456E7465722070617373776F4A
S11313A872643A00496E636F7272656374007061A7
S11313B87373776F7264005661726961626C6573E6
S11313C8004D6F64657300416C61726D006D6178E6
S11313D82074656D70006D696E2074656D7000739E
S11313E865742074656D700074656D702064696639
S11313F866006F6E2074696D65006F666620746997
S11314086D6500616C61726D206469666600616C6B
S113141861726D206869676800616C61726D206C27
S11314286F7700616C61726D207573616765006C1C
S11314386F636B2075736167650068656174006329
S11114486F6F6C0062616C2000303030300039
S9030000FC
