S018000054656D705F636F6E74726F6C5F6D63752E7372656372
S11300000C942A000C94BB080C9447000C944700F1
S11300100C9447000C9447000C9447000C94470040
S11300200C9447000C9447000C9447000C94470030
S11300300C9447000C9447000C9447000C94470020
S11300400C9447000C9447000C9447000C947808D7
S11300500C94470011241FBECFE5D4E0DEBFCDBF12
S113006011E0A0E6B0E0E6E0F3E102C005900D92F5
S1130070AE36B107D9F721E0AEE6B1E001C01D927A
S1130080A33BB207E1F70E94ED040C9481090C94A0
S11300900000979A00C097980895CF93C82F6623BD
S11300A011F0959A01C095989698BC9ABD9ABE9AFB
S11300B0BF9AC798C698C598C498CC230CF4C79A1D
S11300C0C6FDC69AC5FDC59AC4FDC49A0E944900DE
S11300D0C798C698C598C498C3FDC79AC2FDC69A66
S11300E0C1FDC59AC0FDC49A0E944900C49AC59A2C
S11300F0C69AC79ACF910895882311F0959A01C0A2
S11301009598969ABC98BD98BE98BF98979A00C047
S1130110B49B02C080E101C080E0B5998062B699C9
S11301208064B7998068979800C0979A00C0B49982
S11301308160B5998260B6998460B7998860979810
S1130140089580E00E947C008823DCF383E090E043
S11301500197F1F780E00E947C000895CF93C82FA7
S11301600E94A10060E08C2F0E944D00CF91089561
S1130170CF93C82F0E94A10061E08C2F0E944D00F4
S1130180CF910895611104C080580E94AE00089573
S113019080540E94AE00089581E00E94AE0008954C
S11301A0CF93C82F0E94A100CA3049F4803410F0C4
S11301B080E001C080E480580E94AE0004C061E089
S11301C08C2F0E944D00CF910895CF93DF93EC01C3
S11301D02196FC018081882329F00E94D000899116
S11301E08111FBCFDF91CF9108951F93CF93DF93BC
S11301F0182F8D9A8E9A8F9ABC9ABD9ABE9ABF9ADE
S113020080E393E70197F1F7C59AC49A0E944900E5
S113021080EF93E20197F1F70E944900C5E7D0E02F
S1130220CE010197F1F70E944900CE010197F1F741
S1130230C4980E9449002197F1F788E20E94AE0019
S113024088E00E94AE000E94CC0086E00E94AE00CE
S1130250812F0E94AE00DF91CF911F910895CF931B
S1130260DF93CDB7DEB760970FB6F894DEBF0FBE4D
S1130270CDBF0E94CC0080918B014AE0BE016F5F2C
S11302807F4F90E00E944C0980E690E00E94E500D8
S1130290CE0101960E94E5008EE20E94D00080917A
S11302A09601882321F085E30E94D00003C080E3F7
S11302B00E94D0008FED0E94D00087E690E00E945B
S11302C0E50061E080E00E94C2008BE690E00E94BD
S11302D0E500E0916F01F0E0EE0FFF1FED55FE4FDA
S11302E0808191810E94E50061E08BE00E94C20060
S11302F080917801882319F080E00E94D00061E0A9
S11303008DE00E94C20080917701882319F081E07A
S11303100E94D00060960FB6F894DEBF0FBECDBF2A
S1130320DF91CF9108950E94CC0060E083E00E94A9
S1130330C20082E790E00E94E50061E081E00E9453
S1130340C2008DE790E00E94E5000895CF93DF930B
S113035000D000D0CDB7DEB70E94CC008CE30E9461
S1130360D00080916E01811123C0E0917201F0E010
S1130370EE0FFF1FE457FE4F0190F081E02DDF01E7
S11303800D900020E9F7CF018A1B9B0B41969695AF
S1130390879560E00E94C200E0917201F0E0EE0FE8
S11303A0FF1FE457FE4F808191810E94E5005AC1EE
S11303B080917201811190C0E0917101F0E0EE0F23
S11303C0FF1FE555FE4F0190F081E02DDF010D90F8
S11303D00020E9F7CF018A1B9B0B419696958795E0
S11303E060E00E94C200E0917101F0E0EE0FFF1F97
S11303F0E555FE4F808191810E94E5008091700156
S1130400811132C061E086E00E94C200E091710176
S1130410E330A0F4F0E0E758FE4F80814AE0BE01EB
S11304206F5F7F4F90E00E944C090E94E5008FEDC2
S11304300E94D00083E40E94D00014C180E20E9494
S1130440D000E0917101F0E0E758FE4F80814AE06E
S1130450BE016F5F7F4F90E00E944C090E94E5004F
S113046080E20E94D000FEC061E085E00E94C200EC
S11304708CE30E94D000E0917101E330A0F4F0E03D
S1130480E758FE4F80814AE0BE016F5F7F4F90E0E6
S11304900E944C090E94E5008FED0E94D00083E485
S11304A00E94D00015C080E20E94D000E09171014A
S11304B0F0E0E758FE4F80814AE0BE016F5F7F4F56
S11304C090E00E944C090E94E50080E20E94D00066
S11304D08EE30E94D000C6C0813089F560E085E0DB
S11304E00E94C2008BE890E00E94E500E091710157
S11304F0F0E0EE0FFF1FED55FE4F0190F081E02D6F
S1130500DF010D900020E9F7CF018A1B9B0B0F96AA
S11305109695879561E00E94C2008CE30E94D0000A
S1130520E0917101F0E0EE0FFF1FED55FE4F808169
S113053091810E94E5008EE30E94D00093C0E09177
S11305407101F0E0EE0FFF1FE956FE4F0190F081BC
S1130550E02DDF010D900020E9F7CF018A1B9B0BF2
S113056041969695879560E00E94C200E0917101E2
S1130570F0E0EE0FFF1FE956FE4F808191810E944B
S1130580E50080917001811134C061E086E00E9431
S1130590C200E09171018FEF8E0F8230A0F4F0E081
S11305A0EC58FE4F80814AE0BE016F5F7F4F90E0C0
S11305B00E944C090E94E5008FED0E94D00083E464
S11305C00E94D0004FC080E20E94D000E0917101EF
S11305D0F0E0EC58FE4F80814AE0BE016F5F7F4F30
S11305E090E00E944C090E94E50080E20E94D00045
S11305F039C061E085E00E94C2008CE30E94D00013
S1130600E09171018FEF8E0F8230A0F4F0E0EC588E
S1130610FE4F80814AE0BE016F5F7F4F90E00E94F1
S11306204C090E94E5008FED0E94D00083E40E94F3
S1130630D00015C080E20E94D000E0917101F0E08A
S1130640EC58FE4F80814AE0BE016F5F7F4F90E01F
S11306500E944C090E94E50080E20E94D0008EE3D3
S11306600E94D00060E08FE00E94C2008EE30E94EE
S1130670D0000F900F900F900F90DF91CF910895BD
S1130680FC0180E3808381838283838308950F93B5
S11306901F93CF93DF9380918A01811136C00E940A
S11306A0CC0060E081E00E94C20081E990E00E94F9
S11306B0E50061E084E00E94C20001E811E0C0E0CE
S11306C0809171018C1317C080917001811102C057
S11306D080E201C08CE30E94D000F80180810E9476
S11306E0D00080917001811102C080E201C08EE3CC
S11306F00E94D00004C0F80180810E94D000CF5F26
S11307000F5F1F4FC430E1F637C080918901882301
S113071009F10E94CC0060E082E00E94C2008FE9EF
S113072090E00E94E50061E084E00E94C2008CEA4F
S113073090E00E94E500C1E8D1E005E811E089916C
S11307400E94D000C017D107D1F78FEA90E00E9431
S1130750E50012C00E94CC0060E082E00E94C2006A
S113076082EB90E00E94E50061E086E00E94C20016
S11307708FEB90E00E94E500DF91CF911F910F91E4
S113078008950F931F93CF9380918701811132C0F5
S11307900E94CC0084EC90E00E94E50061E084E0DB
S11307A00E94C2000DE711E0C0E0809171018C133A
S11307B017C080917001811102C080E201C08CE3F6
S11307C00E94D000F80180810E94D00080917001C5
S11307D0811102C080E201C08EE30E94D00004C0F7
S11307E0F80180810E94D000CF5F0F5F1F4FC4309B
S11307F0E1F612C00E94CC0060E083E00E94C200D7
S113080084ED90E00E94E50061E084E00E94C20073
S11308108EED90E00E94E500CF911F910F91089515
S1130820FC0130812091810132130DC03196A2E880
S1130830B1E0049631912D91321307C0E817F907FE
S1130840C9F781E0089580E0089580E00895CF938A
S1130850DF939C01FB01408181819281A381B4815A
S1130860820F931FA11DB11DC42FCC0FDD0BC60F2A
S1130870D71F6D817E81861B970BA109B1098183E6
S11308809283A383B4833E832D834F5F403211F060
S1130890408301C01082689414F8B695A795979583
S11308A087951694D1F7DF91CF91089597B1987FEA
S11308B097B997B1892B87B9369A3699FECF84B107
S11308C095B10895FC011082118212821382148260
S11308D0161664F43596660F770B6B5F7F4F860FA1
S11308E0971F11921192E817F907D9F7089586E82E
S11308F086B980EC87B9089580E40E94AE008EE04A
S11309000E94B80081E10E94B80081E10E94B80011
S11309108FE10E94B8008BE10E94B8008FE10E9431
S1130920B8008FE10E94B80080E00E94B80080E027
S11309300E94D00088E40E94AE0080E00E94B800CB
S113094084E00E94B8008EE00E94B8008EE00E940D
S1130950B8008EE00E94B8008FE10E94B80084E0E5
S11309600E94B80080E00E94B80081E00E94D0009C
S113097008958BB78F7B8BBF78942FEF8FE39BE029
S1130980215080409040E1F700C0000080E48ABF1D
S11309908BB780648BBFF89408950E94CC0080913B
S11309A07301823089F028F4882341F0813049F0C2
S11309B00895833061F0843069F008950E949301B2
S11309C008950E942F0108950E94A60108950E948F
S11309D0470308950E94C1030895CF93DF93CDB7D1
S11309E0DEB7C554D1090FB6F894DEBF0FBECDBF34
S11309F0ECE8F1E087EE90E09183808381EF90E072
S1130A009383828387EF90E095838483EBEAF1E01C
S1130A108DEF90E09183808386E091E093838283DD
S1130A208FE091E09583848388E191E097838683C6
S1130A30E7E9F1E082E291E0918380838DE291E045
S1130A409383828388E391E09583848382E491E0B5
S1130A50978386838EE491E091878087E3EAF1E0CF
S1130A6089E591E0918380838EE591E0938382838D
S1130A7083E691E0958384838DE791E00E944003AF
S1130A8081E891E00E944003E9E7F1E083E6808396
S1130A901182128282E08383E4E7F1E0808392E3AF
S1130AA091831282138214829EE09ABB1BBA97E050
S1130AB098BB17BA90E191BB91E29FBD9AE09EBDAD
S1130AC020E830E039BD28BD9DE093BF98E49CBF89
S1130AD089BF85BF80E48BBF78948CE00E94F500C9
S1130AE00E947C040E94CC000E94CD0460E2CE01EE
S1130AF001960E9462040E9477047894812C912CC0
S1130B00540109E711E00F2EF4E7EF2EF1E0FF2E78
S1130B10F02D772473946894222421F86894552442
S1130B2052F8612C0F2EF3E0CF2ED12CF02D0F2E86
S1130B30F5E03F2EF02D412C80E00E945604BE01CA
S1130B406F5F7F4F0E9427049093A2018093A101BD
S1130B504A815B816C817D819401241B350BC90121
S1130B60992324F488279927821B930B41972CF00F
S1130B70709294014A015B0105C08091860188232B
S1130B8009F45DC010928601D80112965C914091DF
S1130B908B01852F90E0841B91099C0122F422276C
S1130BA03327281B390BF801838190E082179307C0
S1130BB040F580916F01813081F018F08230C9F0E6
S1130BC025C0541730F48BB381708BBB1092850110
S1130BD01DC0D99A7092850119C0451730F48BB3A2
S1130BE081708BBB1092850111C0DA9A70928501D5
S1130BF00DC070928501451710F4D99A07C0DA9A8E
S1130C0005C08BB389708BBB10928501D7011396F5
S1130C108C911397882399F08C9190E08217930715
S1130C2058F080918B0111969C911197981720F0A0
S1130C3012969C91891710F4DB9A01C0DB98B09945
S1130C40F7C080917301833009F4BAC0843009F489
S1130C50D3C0823009F033C280916E0181110AC081
S1130C608091720190E00196B6010E94240980935C
S1130C70720125C28091700181110FC080917101B0
S1130C8090E0019620917201222309F42AC22130B6
S1130C9009F41FC2632D742D26C280917201811143
S1130CA04BC090917101292F30E0F901E758FE4FB4
S1130CB080818F5F80839130D9F028F0923041F1A8
S1130CC0933091F1FCC1843640F0F901E758FE4FAE
S1130CD0D80111968C918F5F8083F901E758FE4FFC
S1130CE08081F8019281891708F0E9C18283E7C104
S1130CF0D8019C91891728F0F901E758FE4F10821A
S1130D00DEC1F8019281981708F0D9C18283D7C156
S1130D10D8019C91981708F0D2C111968C91F901D1
S1130D20E758FE4F8083CBC18F3108F4C8C1F90165
S1130D30E758FE4F1082C3C1823009F0C0C19091C0
S1130D407101292F30E0F901EC58FE4F80818F5F4B
S1130D5080839230F9F028F4992341F0913071F0B6
S1130D60AEC1933009F1943029F1A9C1833308F459
S1130D70A6C1F901EC58FE4F7082A1C1843608F473
S1130D809EC1F901EC58FE4FD70112968C918F5FEA
S1130D90808395C1F7019181891708F490C1F90105
S1130DA0EC58FE4F10828BC1F901EC58FE4F817054
S1130DB0808385C1F901EC58FE4F817080837FC127
S1130DC08091700181110FC08091710190E00196B2
S1130DD083709078992324F401978C6F9F6F019608
S1130DE0809371016CC1E0917101F0E0EF57FE4F07
S1130DF080818F5F808363C18091700181110FC0F6
S1130E008091710190E0019683709078992324F485
S1130E1001978C6F9F6F01968093710150C1E0918F
S1130E207101F0E0E358FE4F80818F5F808347C1FA
S1130E30B199EEC080917301833009F4C9C0843044
S1130E4009F4D6C0823009F03AC180916E01811153
S1130E500BC070926E0190917201913011F48091E7
S1130E606F01809371012BC180917001811103C0C6
S1130E707092700124C180917201811152C0E0917D
S1130E807101E130D1F028F0E23069F1E330C9F1C9
S1130E9041C0D8019C9111968C911197891710F03B
S1130EA0F4E6FC93D8018C9112969C9112978917C1
S1130EB088F5815012968C932DC0D80111968C918F
S1130EC01197811103C08C9111968C93D8011196BE
S1130ED08C91119712969C9112978917D8F481508E
S1130EE012968C9317C0D80112969C911297119662
S1130EF08C911197891770F08C918F5F12968C9357
S1130F0009C0D80113968C911397811103C0FFE196
S1130F101396FC93F0E0E758FE4F80818150808364
S1130F20CEC0823009F0CBC0E0917101E230E1F033
S1130F3028F4EE2341F0E13069F043C0E330F1F0EE
S1130F40E43071F13EC0D7018C918230D0F5F3E3E7
S1130F50FC9337C0D70111968C911197811131C040
S1130F60F4E61196FC932DC0D70112968C9112973A
S1130F70811127C0F4E61296FC9323C0D70113967F
S1130F808C9190E0019681709078992324F40197D4
S1130F908E6F9F6F01968F5FD70113968C9311C04C
S1130FA0D70114968C9190E00196817090789923E2
S1130FB024F401978E6F9F6F01968F5FD70114966B
S1130FC08C93F0E0EC58FE4F80818150808377C091
S1130FD080917001811103C07092700170C0E09122
S1130FE07101F0E0EF57FE4F80818150808367C02C
S1130FF080917001811103C07092700160C0E09112
S11310007101F0E0E358FE4F80818150808357C026
S1131010B29955C0809173018330A1F0843069F195
S1131020823009F04CC080917001882319F010922D
S1131030700145C080916E01882309F440C010926C
S11310406E013DC080917001811114C070928A01BB
S113105088E691E00E941004972D811190E090930E
S11310608901972D811101C090E09093880110921D
S1131070710125C01092700122C0809170018823F3
S113108019F0109270011BC08DE791E00E941004CA
S1131090882359F070928801209273017092710133
S11310A08DE791E00E9440030AC07092870110927C
S11310B08801109271018DE791E00E944003BFEF17
S11310C0EFE7F4E0B150E040F040E1F700C0000089
S11310D033CDB6010E9424098093710180936F017E
S11310E0EECF652D762D0E94240980937101E7CF00
S11310F01F920F920FB60F9211242F933F934F9389
S11311005F936F937F938F939F93AF93BF93EF936B
S1131110FF930E94CD04809194018130D9F480E042
S113112090E09091A101A0E0B0E0072E79E0B6959F
S1131130A795979587957A95D1F7702D282F2170CB
S113114020939601B695A7959795879580938B01E3
S113115010929401FF91EF91BF91AF919F918F9164
S11311607F916F915F914F913F912F910F900FBE9F
S11311700F901F9018951F920F920FB60F92112483
S11311802F933F934F935F936F937F938F939F938B
S1131190AF93BF93EF93FF93809173018230F9F083
S11311A028F4882341F0813051F039C0833051F163
S11311B0843081F134C083E08093730130C0909116
S11311C0780180918501892351F5809188018823D4
S11311D011F082E001C084E08093730120C081E0BB
S11311E08093730190918901911180E0809388012B
S11311F0109272011092700110926E0181E080933E
S113120086010DC080918A01882349F081E0809392
S1131210730105C01092870181E0809373010E94DD
S1131220CD040E94B904FF91EF91BF91AF919F91BA
S11312308F917F916F915F914F913F912F910F907B
S11312400FBE0F901F90189597FB072E16F400946D
S113125007D077FD09D00E94380907FC05D03EF479
S1131260909581959F4F0895709561957F4F08954E
S1131270AA1BBB1B51E107C0AA1FBB1FA617B707B8
S113128010F0A61BB70B881F991F5A95A9F78095D4
S11312909095BC01CD010895BB274A3031F49923C0
S11312A022F4BDE2909581959F4F0C945809BB2779
S11312B0FB015527AA27880F991FAA1FA41710F00E
S11312C0A41B83955051B9F7A05DAA3308F0A95D1A
S11312D0A193009779F7B111B1931192CB010C94BA
S11312E07109DC01FC01672F71917723E1F73297D3
S11312F004C07C916D9370836291AE17BF07C8F3ED
S10913000895F894FFCFEC
S113130654656D703A2000432020004D6F64653AA1
S1131316200057656C636F6D6520746F0074656D8E
S1131326702E20636F6E74726F6C004D6F64653A35
S1131336005365742070617373776F72643A00505A
S1131346617373776F726420736574002D3E003C7D
S11313562D0050617373776F7264206E6F7400751D
S113136673656400456E7465722070617373776F7C
S113137672643A00496E636F7272656374007061D9
S11313867373776F7264005661726961626C657318
S1131396004D6F64657300416C61726D006D617818
S11313A62074656D70006D696E2074656D700073D0
S11313B665742074656D700074656D70206469666B
S11313C66600616C61726D206469666600616C61B9
S11313D6726D206869676800616C61726D206C6F5C
S11313E67700616C61726D207573616765006C6F5F
S11313F6636B207573616765006865617400636F6C
S11114066F6C0062616C2000303030300000EA
S9030000FC
