S018000054656D705F636F6E74726F6C5F6D63752E7372656372
S11300000C9437000C9464040C9454000C94540025
S11300100C9454000C9454000C9454000C9454000C
S11300200C9454000C9454000C9454000C945400FC
S11300300C9454000C9454000C9454000C945400EC
S11300400C9454000C9454000C9454000C94040428
S11300500C94540074656D702E20636F6E74726F0F
S11300606C0057656C636F6D6520746F000011241C
S11300701FBECFE5D4E0DEBFCDBF10E0A0E6B0E008
S1130080ECEAFCE002C005900D92A23DB107D9F75D
S113009020E0A2EDB0E001C01D92A53FB207E1F758
S11300A00E94E5040C9454060C940000979A00C036
S11300B097980895CF93C82F662311F0959A01C09D
S11300C095989698BC9ABD9ABE9ABF9AC798C698B6
S11300D0C598C498CC230CF4C79AC6FDC69AC5FD2E
S11300E0C59AC4FDC49A0E945600C798C698C5987C
S11300F0C498C3FDC79AC2FDC69AC1FDC59AC0FD86
S1130100C49A0E945600C49AC59AC69AC79ACF91B7
S11301100895882311F0959A01C09598969ABC98F1
S1130120BD98BE98BF98979A00C0B49B02C080E166
S113013001C080E0B5998062B6998064B7998068FF
S1130140979800C0979A00C0B4998160B59982606D
S1130150B6998460B79988609798089580E00E9462
S113016089008823DCF383E090E00197F1F780E0D5
S11301700E9489000895CF93C82F0E94AE0060E0CA
S11301808C2F0E945A00CF910895611104C08058A9
S11301900E94BB00089580540E94BB00089581E032
S11301A00E94BB000895CF93C82F0E94AE00CA30AE
S11301B049F4803410F080E001C080E480580E944B
S11301C0BB0004C061E08C2F0E945A00CF910895B7
S11301D0CF93DF93EC012196FC018081882329F0E1
S11301E00E94D30089918111FBCFDF91CF910895B3
S11301F0CF93DF93EC012196FC018491882339F09D
S11302000E94D300FE01849121968111F9CFDF91E0
S1130210CF9108951F93CF93DF93182F8D9A8E9AC1
S11302208F9ABC9ABD9ABE9ABF9A80E393E70197CE
S1130230F1F7C59AC49A0E94560080EF93E20197A1
S1130240F1F70E945600C5E7D0E0CE010197F1F71F
S11302500E945600CE010197F1F7C4980E945600FF
S11302602197F1F788E20E94BB0088E00E94BB005E
S11302700E94CF0086E00E94BB00812F0E94BB0039
S1130280DF91CF911F910895CF93DF93CDB7DEB760
S113029060970FB6F894DEBF0FBECDBF0E94CF00AB
S11302A08091D9004AE0BE016F5F7F4F90E00E94C9
S11302B01F0681E690E00E94E800CE0101960E94AC
S11302C0E8008EE20E94D3008091E600882321F0AA
S11302D085E30E94D30003C080E30E94D3008FED26
S11302E00E94D30088E690E00E94E80061E080E08C
S11302F00E94C5008CE690E00E94E800E091D300E3
S1130300F0E0EE0FFF1FE751FF4F808191810E94C3
S1130310E80060960FB6F894DEBF0FBECDBFDF9144
S1130320CF9108950E94CF0060E083E00E94C50051
S113033082E690E00E94F80061E081E00E94C5003E
S113034084E590E00E94F80008950F931F93CF93E3
S1130350DF9300D01F92CDB7DEB78CE30E94D300A9
S11303608091D20081117FC08091D500813021F12C
S113037030F08230F1F1833009F458C025C2E091A5
S1130380DC00F091DD00DF010D900020E9F7CF01E2
S11303908A1B9B0B41969695879560E00E94C50049
S11303A0E091D500F0E0EE0FFF1FE452FF4F808193
S11303B091810E94E80008C2E091DE00F091DF0024
S11303C0DF010D900020E9F7CF018A1B9B0B4196BA
S11303D09695879560E00E94C500E091D500F0E015
S11303E0EE0FFF1FE452FF4F808191810E94E800CD
S11303F0EBC1E091E000F091E100DF010D900020FD
S1130400E9F7CF018A1B9B0B41969695879560E08F
S11304100E94C500E091D500F0E0EE0FFF1FE4520A
S1130420FF4F808191810E94E800CEC1E091E200FB
S1130430F091E300DF010D900020E9F7CF018A1B62
S11304409B0B41969695879560E00E94C500E091CC
S1130450D500F0E0EE0FFF1FE452FF4F8081918141
S11304600E94E800B1C18091D5008111F6C080914D
S11304706000813021F0823009F478C0A5C1E09198
S1130480F100F091F200DF010D900020E9F7CF01B7
S11304908A1B9B0B41969695879560E00E94C50048
S11304A0E0916000F0E0EE0FFF1FE151FF4F80810B
S11304B091810E94E8009091D8008DEC989F812D45
S11304C0112486958695869520E3280F2983880F25
S11304D0282F220F220F820F981B905D9A831B8274
S11304E08091D40081111EC08E010F5F1F4FF8014F
S11304F001900020E9F7C8018E1B9F0B0E9696957C
S1130500879561E00E94C500C8010E94E80083E766
S113051090E00E94E8008FED0E94D30083E40E94E3
S1130520D30052C18E010F5F1F4FF80101900020CC
S1130530E9F7C8018E1B9F0B0C969695879561E091
S11305400E94C5008CE30E94D300C8010E94E80009
S113055083E790E00E94E8008FED0E94D30083E4DB
S11305600E94D3008EE30E94D3002EC1E091F300D9
S1130570F091F400DF010D900020E9F7CF018A1B10
S11305809B0B41969695879560E00E94C500E0918B
S11305906000F0E0EE0FFF1FE151FF4F8081918179
S11305A00E94E8009091D8008DEC989F812D112431
S11305B086958695869520E3280F2983880F282F12
S11305C0220F220F820F981B905D9A831B828091C9
S11305D0D40081111EC08E010F5F1F4FF8010190DE
S11305E00020E9F7C8018E1B9F0B0E969695879500
S11305F061E00E94C500C8010E94E80083E790E022
S11306000E94E8008FED0E94D30083E40E94D3008F
S1130610DBC08E010F5F1F4FF80101900020E9F746
S1130620C8018E1B9F0B0C969695879561E00E94DE
S1130630C5008CE30E94D300C8010E94E80083E750
S113064090E00E94E8008FED0E94D30083E40E94B2
S1130650D3008EE30E94D300B7C060E085E00E941F
S1130660C50086E790E00E94E8008091D3008130C5
S113067089F138F0823009F456C0833009F47CC023
S1130680A3C0E0916000F0E0EE0FFF1FE951FF4FBF
S11306900190F081E02DDF010D900020E9F7CF01FA
S11306A08A1B9B0B0F969695879561E00E94C50067
S11306B08CE30E94D300E0916000F0E0EE0FFF1F96
S11306C0E951FF4F808191810E94E8008EE30E94EE
S11306D0D3007AC0E0916000F0E0EE0FFF1FE95113
S11306E0FF4F0190F081E02DDF010D900020E9F72C
S11306F0CF018A1B9B0B0F969695879561E00E940C
S1130700C5008CE30E94D300E0916000F0E0EE0F9E
S1130710FF1FE951FF4F808191810E94E8008EE321
S11307200E94D30051C0E0916000F0E0EE0FFF1F83
S1130730E951FF4F0190F081E02DDF010D90002081
S1130740E9F7CF018A1B9B0B0F969695879561E07D
S11307500E94C5008CE30E94D300E0916000F0E0A9
S1130760EE0FFF1FE951FF4F808191810E94E80045
S11307708EE30E94D30028C0E0916000F0E0EE0F09
S1130780FF1FE951FF4F0190F081E02DDF010D9033
S11307900020E9F7CF018A1B9B0B0F96969587954E
S11307A061E00E94C5008CE30E94D300E0916000E8
S11307B0F0E0EE0FFF1FE951FF4F808191810E940D
S11307C0E8008EE30E94D30060E08FE00E94C50041
S11307D08EE30E94D3000F900F900F90DF91CF9182
S11307E01F910F9108950E94CF008091D60081112E
S11307F003C00E9492010895813019F40E944401BB
S113080008950E94A50108951F920F920FB60F92AA
S113081011242F933F934F935F936F937F938F9301
S11308209F93AF93BF93EF93FF938091DA008F5F11
S11308308093DA00843621F41092DA000E94F303E4
S11308408091E4008130D9F480E090E09091E70059
S1130850A0E0B0E0072E79E0B695A7959795879527
S11308607A95D1F7702D282F21702093E600B69544
S1130870A795979587958093D9001092E400FF91EE
S1130880EF91BF91AF919F918F917F916F915F9104
S11308904F913F912F910F900FBE0F901F9018957D
S11308A08BB78F7B8BBF78942FEF8FE39BE0215026
S11308B080409040E1F700C0000080E48ABF8BB71D
S11308C080648BBFF89408951F920F920FB60F9215
S11308D011242F933F934F935F936F937F938F9341
S11308E09F93AF93BF93EF93FF938091D600817052
S11308F08F5F8093D6000E94F3030E945004FF91FF
S1130900EF91BF91AF919F918F917F916F915F9183
S11309104F913F912F910F900FBE0F901F901895FC
S1130920FC0110821182128213821482161664F45E
S11309303596660F770B6B5F7F4F860F971F11926B
S11309401192E817F907D9F70895CF93DF939C0123
S1130950FB01408181819281A381B481820F931F25
S1130960A11DB11DC42FCC0FDD0BC60FD71F6D8188
S11309707E81861B970BA109B10981839283A3838E
S1130980B4833E832D834F5F403211F0408301C016
S11309901082689414F8B695A79597958795169440
S11309A0D1F7DF91CF91089597B1987F97B997B117
S11309B0892B87B9369A3699FECF84B195B10895BB
S11309C086E886B980EC87B90895CF93DF93CDB7D5
S11309D0DEB7C554D1090FB6F894DEBF0FBECDBF44
S11309E0ECEDF0E08CE790E09183808386E890E082
S11309F0938382838CE890E09583848386E990E0F6
S1130A0097838683E1EFF0E081EA90E0918380832D
S1130A108AEA90E093838283E9EEF0E083EB90E04E
S1130A20918380838BEB90E09383828383EC90E0CB
S1130A30958384838BEC90E09783868383E2809311
S1130A40D7008093D80080EE8ABB87E088BB17BAB2
S1130A5080E181BB81E28FBD8AE08EBD80E890E0B9
S1130A6099BD88BD8DE083BF88E48CBF82E089BFD7
S1130A7085BF80E48BBF78948CE00E940A010E94B9
S1130A80CF000E94F30360E2CE0101960E9490041D
S1130A900E94E0047894C12CD12C760111E004E684
S1130AA080E00E94D404BE016F5F7F4F0E94A504C2
S1130AB09093E8008093E7004A815B816C817D819B
S1130AC09601241B350BC901992324F488279927FF
S1130AD0821B930B419724F01093E4006A017B017D
S1130AE0B09951C08091D600823009F098C08091AD
S1130AF0D20081110FC08091D50090E001968370DF
S1130B009078992324F401978C6F9F6F01968093BA
S1130B10D50085C08091D400811114C080916000FB
S1130B2090E02091D500222309F483C0837090784B
S1130B3031E0380F30936000213009F070C08093A9
S1130B40D3006DC08091D500811169C0809160008F
S1130B50813019F0823061F062C08091D8008F5FDB
S1130B60843618F48093D8005AC01092D80057C025
S1130B708091D7008F5F843618F48093D7004FC0DC
S1130B801092D7004CC0B19938C08091D600823001
S1130B9009F045C08091D200811103C01093D200A6
S1130BA03EC08091D400811105C080916000809383
S1130BB0D40035C08091D500811131C0809160008E
S1130BC0813019F0823069F02AC08091D8008111F7
S1130BD002C00093D8008091D80081508093D8003F
S1130BE01EC08091D700811102C00093D70080916C
S1130BF0D70081508093D70012C0B29910C0809161
S1130C00D600823061F48091D400882319F01092C8
S1130C10D40005C08091D20081111092D2002FEF30
S1130C208FE794E0215080409040E1F700C000003D
S1130C3037CF817090788F5F80936000F0CFBB27AF
S1130C404A3031F4992322F4BDE2909581959F4F67
S1130C500C942B06BB27FB015527AA27880F991F45
S1130C60AA1FA41710F0A41B83955051B9F7A05DD7
S1130C70AA3308F0A95DA193009779F7B111B19354
S1130C801192CB010C944406DC01FC01672F719195
S1130C907723E1F7329704C07C916D93708362915E
S10F0CA0AE17BF07C8F30895F894FFCF07
S1130CAC0154656D703A2000432020004D6F64653B
S1130CBC3A20002E30004D6F64653A00566172691B
S1130CCC61626C6573004D6F646573005465737475
S1130CDC5F6D656E7500546573745F6D656E752E0E
S1130CEC006D61785F74656D70006D696E5F74651D
S1130CFC6D700068656174696E6700636F6F6C6911
S1130D0C6E670062616C616E636500746573743345
S1050D1C0000D1
S9030000FC
